{
  "_format": "hh-sol-artifact-1",
  "contractName": "Lottery",
  "sourceName": "contracts/Lottery.sol",
  "abi": [
    {
      "inputs": [
        {
          "internalType": "uint64",
          "name": "subscriptionId",
          "type": "uint64"
        },
        {
          "internalType": "string",
          "name": "_baseURI",
          "type": "string"
        }
      ],
      "stateMutability": "nonpayable",
      "type": "constructor"
    },
    {
      "inputs": [
        {
          "internalType": "address",
          "name": "have",
          "type": "address"
        },
        {
          "internalType": "address",
          "name": "want",
          "type": "address"
        }
      ],
      "name": "OnlyCoordinatorCanFulfill",
      "type": "error"
    },
    {
      "anonymous": false,
      "inputs": [
        {
          "indexed": true,
          "internalType": "address",
          "name": "account",
          "type": "address"
        },
        {
          "indexed": true,
          "internalType": "address",
          "name": "operator",
          "type": "address"
        },
        {
          "indexed": false,
          "internalType": "bool",
          "name": "approved",
          "type": "bool"
        }
      ],
      "name": "ApprovalForAll",
      "type": "event"
    },
    {
      "anonymous": false,
      "inputs": [
        {
          "indexed": false,
          "internalType": "string",
          "name": "_category",
          "type": "string"
        }
      ],
      "name": "CategoryAdded",
      "type": "event"
    },
    {
      "anonymous": false,
      "inputs": [
        {
          "indexed": true,
          "internalType": "address",
          "name": "previousOwner",
          "type": "address"
        },
        {
          "indexed": true,
          "internalType": "address",
          "name": "newOwner",
          "type": "address"
        }
      ],
      "name": "OwnershipTransferred",
      "type": "event"
    },
    {
      "anonymous": false,
      "inputs": [
        {
          "indexed": true,
          "internalType": "bytes32",
          "name": "role",
          "type": "bytes32"
        },
        {
          "indexed": true,
          "internalType": "bytes32",
          "name": "previousAdminRole",
          "type": "bytes32"
        },
        {
          "indexed": true,
          "internalType": "bytes32",
          "name": "newAdminRole",
          "type": "bytes32"
        }
      ],
      "name": "RoleAdminChanged",
      "type": "event"
    },
    {
      "anonymous": false,
      "inputs": [
        {
          "indexed": true,
          "internalType": "bytes32",
          "name": "role",
          "type": "bytes32"
        },
        {
          "indexed": true,
          "internalType": "address",
          "name": "account",
          "type": "address"
        },
        {
          "indexed": true,
          "internalType": "address",
          "name": "sender",
          "type": "address"
        }
      ],
      "name": "RoleGranted",
      "type": "event"
    },
    {
      "anonymous": false,
      "inputs": [
        {
          "indexed": true,
          "internalType": "bytes32",
          "name": "role",
          "type": "bytes32"
        },
        {
          "indexed": true,
          "internalType": "address",
          "name": "account",
          "type": "address"
        },
        {
          "indexed": true,
          "internalType": "address",
          "name": "sender",
          "type": "address"
        }
      ],
      "name": "RoleRevoked",
      "type": "event"
    },
    {
      "anonymous": false,
      "inputs": [
        {
          "indexed": true,
          "internalType": "uint256",
          "name": "_traitId",
          "type": "uint256"
        },
        {
          "indexed": false,
          "internalType": "string",
          "name": "_category",
          "type": "string"
        },
        {
          "indexed": false,
          "internalType": "uint256",
          "name": "_quantity",
          "type": "uint256"
        }
      ],
      "name": "TraitAdded",
      "type": "event"
    },
    {
      "anonymous": false,
      "inputs": [
        {
          "indexed": true,
          "internalType": "uint256",
          "name": "_traitId",
          "type": "uint256"
        }
      ],
      "name": "TraitRemoved",
      "type": "event"
    },
    {
      "anonymous": false,
      "inputs": [
        {
          "indexed": true,
          "internalType": "address",
          "name": "operator",
          "type": "address"
        },
        {
          "indexed": true,
          "internalType": "address",
          "name": "from",
          "type": "address"
        },
        {
          "indexed": true,
          "internalType": "address",
          "name": "to",
          "type": "address"
        },
        {
          "indexed": false,
          "internalType": "uint256[]",
          "name": "ids",
          "type": "uint256[]"
        },
        {
          "indexed": false,
          "internalType": "uint256[]",
          "name": "values",
          "type": "uint256[]"
        }
      ],
      "name": "TransferBatch",
      "type": "event"
    },
    {
      "anonymous": false,
      "inputs": [
        {
          "indexed": true,
          "internalType": "address",
          "name": "operator",
          "type": "address"
        },
        {
          "indexed": true,
          "internalType": "address",
          "name": "from",
          "type": "address"
        },
        {
          "indexed": true,
          "internalType": "address",
          "name": "to",
          "type": "address"
        },
        {
          "indexed": false,
          "internalType": "uint256",
          "name": "id",
          "type": "uint256"
        },
        {
          "indexed": false,
          "internalType": "uint256",
          "name": "value",
          "type": "uint256"
        }
      ],
      "name": "TransferSingle",
      "type": "event"
    },
    {
      "anonymous": false,
      "inputs": [
        {
          "indexed": false,
          "internalType": "string",
          "name": "value",
          "type": "string"
        },
        {
          "indexed": true,
          "internalType": "uint256",
          "name": "id",
          "type": "uint256"
        }
      ],
      "name": "URI",
      "type": "event"
    },
    {
      "inputs": [],
      "name": "DEFAULT_ADMIN_ROLE",
      "outputs": [
        {
          "internalType": "bytes32",
          "name": "",
          "type": "bytes32"
        }
      ],
      "stateMutability": "view",
      "type": "function"
    },
    {
      "inputs": [
        {
          "internalType": "string",
          "name": "_category",
          "type": "string"
        }
      ],
      "name": "addCategory",
      "outputs": [],
      "stateMutability": "nonpayable",
      "type": "function"
    },
    {
      "inputs": [
        {
          "internalType": "uint256",
          "name": "_tokenID",
          "type": "uint256"
        },
        {
          "internalType": "string",
          "name": "_category",
          "type": "string"
        },
        {
          "internalType": "uint256",
          "name": "_quantity",
          "type": "uint256"
        }
      ],
      "name": "addTrait",
      "outputs": [],
      "stateMutability": "nonpayable",
      "type": "function"
    },
    {
      "inputs": [
        {
          "internalType": "address",
          "name": "",
          "type": "address"
        }
      ],
      "name": "amountEntries",
      "outputs": [
        {
          "internalType": "uint256",
          "name": "",
          "type": "uint256"
        }
      ],
      "stateMutability": "view",
      "type": "function"
    },
    {
      "inputs": [
        {
          "internalType": "address",
          "name": "account",
          "type": "address"
        },
        {
          "internalType": "uint256",
          "name": "id",
          "type": "uint256"
        }
      ],
      "name": "balanceOf",
      "outputs": [
        {
          "internalType": "uint256",
          "name": "",
          "type": "uint256"
        }
      ],
      "stateMutability": "view",
      "type": "function"
    },
    {
      "inputs": [
        {
          "internalType": "address[]",
          "name": "accounts",
          "type": "address[]"
        },
        {
          "internalType": "uint256[]",
          "name": "ids",
          "type": "uint256[]"
        }
      ],
      "name": "balanceOfBatch",
      "outputs": [
        {
          "internalType": "uint256[]",
          "name": "",
          "type": "uint256[]"
        }
      ],
      "stateMutability": "view",
      "type": "function"
    },
    {
      "inputs": [
        {
          "internalType": "uint256",
          "name": "",
          "type": "uint256"
        }
      ],
      "name": "categories",
      "outputs": [
        {
          "internalType": "string",
          "name": "",
          "type": "string"
        }
      ],
      "stateMutability": "view",
      "type": "function"
    },
    {
      "inputs": [],
      "name": "categoryPointer",
      "outputs": [
        {
          "internalType": "uint256",
          "name": "",
          "type": "uint256"
        }
      ],
      "stateMutability": "view",
      "type": "function"
    },
    {
      "inputs": [
        {
          "internalType": "string",
          "name": "",
          "type": "string"
        }
      ],
      "name": "categoryValidation",
      "outputs": [
        {
          "internalType": "bool",
          "name": "",
          "type": "bool"
        }
      ],
      "stateMutability": "view",
      "type": "function"
    },
    {
      "inputs": [],
      "name": "enter",
      "outputs": [],
      "stateMutability": "payable",
      "type": "function"
    },
    {
      "inputs": [
        {
          "internalType": "uint256",
          "name": "",
          "type": "uint256"
        }
      ],
      "name": "entries",
      "outputs": [
        {
          "internalType": "uint256",
          "name": "",
          "type": "uint256"
        }
      ],
      "stateMutability": "view",
      "type": "function"
    },
    {
      "inputs": [
        {
          "internalType": "uint256",
          "name": "id",
          "type": "uint256"
        }
      ],
      "name": "exists",
      "outputs": [
        {
          "internalType": "bool",
          "name": "",
          "type": "bool"
        }
      ],
      "stateMutability": "view",
      "type": "function"
    },
    {
      "inputs": [],
      "name": "getCategories",
      "outputs": [
        {
          "internalType": "string[]",
          "name": "",
          "type": "string[]"
        }
      ],
      "stateMutability": "view",
      "type": "function"
    },
    {
      "inputs": [
        {
          "internalType": "uint256",
          "name": "tokenID",
          "type": "uint256"
        }
      ],
      "name": "getQuantity",
      "outputs": [
        {
          "internalType": "uint256",
          "name": "",
          "type": "uint256"
        }
      ],
      "stateMutability": "view",
      "type": "function"
    },
    {
      "inputs": [
        {
          "internalType": "bytes32",
          "name": "role",
          "type": "bytes32"
        }
      ],
      "name": "getRoleAdmin",
      "outputs": [
        {
          "internalType": "bytes32",
          "name": "",
          "type": "bytes32"
        }
      ],
      "stateMutability": "view",
      "type": "function"
    },
    {
      "inputs": [
        {
          "internalType": "bytes32",
          "name": "role",
          "type": "bytes32"
        },
        {
          "internalType": "uint256",
          "name": "index",
          "type": "uint256"
        }
      ],
      "name": "getRoleMember",
      "outputs": [
        {
          "internalType": "address",
          "name": "",
          "type": "address"
        }
      ],
      "stateMutability": "view",
      "type": "function"
    },
    {
      "inputs": [
        {
          "internalType": "bytes32",
          "name": "role",
          "type": "bytes32"
        }
      ],
      "name": "getRoleMemberCount",
      "outputs": [
        {
          "internalType": "uint256",
          "name": "",
          "type": "uint256"
        }
      ],
      "stateMutability": "view",
      "type": "function"
    },
    {
      "inputs": [
        {
          "internalType": "uint256",
          "name": "tokenID",
          "type": "uint256"
        }
      ],
      "name": "getTrait",
      "outputs": [
        {
          "internalType": "string",
          "name": "",
          "type": "string"
        },
        {
          "internalType": "uint256",
          "name": "",
          "type": "uint256"
        }
      ],
      "stateMutability": "view",
      "type": "function"
    },
    {
      "inputs": [
        {
          "internalType": "bytes32",
          "name": "role",
          "type": "bytes32"
        },
        {
          "internalType": "address",
          "name": "account",
          "type": "address"
        }
      ],
      "name": "grantRole",
      "outputs": [],
      "stateMutability": "nonpayable",
      "type": "function"
    },
    {
      "inputs": [
        {
          "internalType": "bytes32",
          "name": "role",
          "type": "bytes32"
        },
        {
          "internalType": "address",
          "name": "account",
          "type": "address"
        }
      ],
      "name": "hasRole",
      "outputs": [
        {
          "internalType": "bool",
          "name": "",
          "type": "bool"
        }
      ],
      "stateMutability": "view",
      "type": "function"
    },
    {
      "inputs": [
        {
          "internalType": "address",
          "name": "account",
          "type": "address"
        },
        {
          "internalType": "address",
          "name": "operator",
          "type": "address"
        }
      ],
      "name": "isApprovedForAll",
      "outputs": [
        {
          "internalType": "bool",
          "name": "",
          "type": "bool"
        }
      ],
      "stateMutability": "view",
      "type": "function"
    },
    {
      "inputs": [],
      "name": "lotteryClosed",
      "outputs": [
        {
          "internalType": "bool",
          "name": "",
          "type": "bool"
        }
      ],
      "stateMutability": "view",
      "type": "function"
    },
    {
      "inputs": [],
      "name": "maxEntries",
      "outputs": [
        {
          "internalType": "uint256",
          "name": "",
          "type": "uint256"
        }
      ],
      "stateMutability": "view",
      "type": "function"
    },
    {
      "inputs": [],
      "name": "max_mint_allowed",
      "outputs": [
        {
          "internalType": "uint256",
          "name": "",
          "type": "uint256"
        }
      ],
      "stateMutability": "view",
      "type": "function"
    },
    {
      "inputs": [],
      "name": "owner",
      "outputs": [
        {
          "internalType": "address",
          "name": "",
          "type": "address"
        }
      ],
      "stateMutability": "view",
      "type": "function"
    },
    {
      "inputs": [
        {
          "internalType": "uint256",
          "name": "tokenID",
          "type": "uint256"
        }
      ],
      "name": "pickWinner",
      "outputs": [],
      "stateMutability": "nonpayable",
      "type": "function"
    },
    {
      "inputs": [
        {
          "internalType": "uint256",
          "name": "",
          "type": "uint256"
        }
      ],
      "name": "players",
      "outputs": [
        {
          "internalType": "address",
          "name": "",
          "type": "address"
        }
      ],
      "stateMutability": "view",
      "type": "function"
    },
    {
      "inputs": [],
      "name": "priceSale",
      "outputs": [
        {
          "internalType": "uint256",
          "name": "",
          "type": "uint256"
        }
      ],
      "stateMutability": "view",
      "type": "function"
    },
    {
      "inputs": [
        {
          "internalType": "uint256",
          "name": "requestId",
          "type": "uint256"
        },
        {
          "internalType": "uint256[]",
          "name": "randomWords",
          "type": "uint256[]"
        }
      ],
      "name": "rawFulfillRandomWords",
      "outputs": [],
      "stateMutability": "nonpayable",
      "type": "function"
    },
    {
      "inputs": [
        {
          "internalType": "uint256",
          "name": "_tokenID",
          "type": "uint256"
        }
      ],
      "name": "removeTrait",
      "outputs": [],
      "stateMutability": "nonpayable",
      "type": "function"
    },
    {
      "inputs": [],
      "name": "renounceOwnership",
      "outputs": [],
      "stateMutability": "nonpayable",
      "type": "function"
    },
    {
      "inputs": [
        {
          "internalType": "bytes32",
          "name": "role",
          "type": "bytes32"
        },
        {
          "internalType": "address",
          "name": "account",
          "type": "address"
        }
      ],
      "name": "renounceRole",
      "outputs": [],
      "stateMutability": "nonpayable",
      "type": "function"
    },
    {
      "inputs": [],
      "name": "requestRandomWords",
      "outputs": [],
      "stateMutability": "nonpayable",
      "type": "function"
    },
    {
      "inputs": [
        {
          "internalType": "bytes32",
          "name": "role",
          "type": "bytes32"
        },
        {
          "internalType": "address",
          "name": "account",
          "type": "address"
        }
      ],
      "name": "revokeRole",
      "outputs": [],
      "stateMutability": "nonpayable",
      "type": "function"
    },
    {
      "inputs": [
        {
          "internalType": "uint256",
          "name": "",
          "type": "uint256"
        }
      ],
      "name": "s_randomWords",
      "outputs": [
        {
          "internalType": "uint256",
          "name": "",
          "type": "uint256"
        }
      ],
      "stateMutability": "view",
      "type": "function"
    },
    {
      "inputs": [],
      "name": "s_requestId",
      "outputs": [
        {
          "internalType": "uint256",
          "name": "",
          "type": "uint256"
        }
      ],
      "stateMutability": "view",
      "type": "function"
    },
    {
      "inputs": [
        {
          "internalType": "address",
          "name": "from",
          "type": "address"
        },
        {
          "internalType": "address",
          "name": "to",
          "type": "address"
        },
        {
          "internalType": "uint256[]",
          "name": "ids",
          "type": "uint256[]"
        },
        {
          "internalType": "uint256[]",
          "name": "amounts",
          "type": "uint256[]"
        },
        {
          "internalType": "bytes",
          "name": "data",
          "type": "bytes"
        }
      ],
      "name": "safeBatchTransferFrom",
      "outputs": [],
      "stateMutability": "nonpayable",
      "type": "function"
    },
    {
      "inputs": [
        {
          "internalType": "address",
          "name": "from",
          "type": "address"
        },
        {
          "internalType": "address",
          "name": "to",
          "type": "address"
        },
        {
          "internalType": "uint256",
          "name": "id",
          "type": "uint256"
        },
        {
          "internalType": "uint256",
          "name": "amount",
          "type": "uint256"
        },
        {
          "internalType": "bytes",
          "name": "data",
          "type": "bytes"
        }
      ],
      "name": "safeTransferFrom",
      "outputs": [],
      "stateMutability": "nonpayable",
      "type": "function"
    },
    {
      "inputs": [
        {
          "internalType": "address",
          "name": "operator",
          "type": "address"
        },
        {
          "internalType": "bool",
          "name": "approved",
          "type": "bool"
        }
      ],
      "name": "setApprovalForAll",
      "outputs": [],
      "stateMutability": "nonpayable",
      "type": "function"
    },
    {
      "inputs": [
        {
          "internalType": "bytes4",
          "name": "interfaceId",
          "type": "bytes4"
        }
      ],
      "name": "supportsInterface",
      "outputs": [
        {
          "internalType": "bool",
          "name": "",
          "type": "bool"
        }
      ],
      "stateMutability": "view",
      "type": "function"
    },
    {
      "inputs": [],
      "name": "toggleLottery",
      "outputs": [],
      "stateMutability": "nonpayable",
      "type": "function"
    },
    {
      "inputs": [
        {
          "internalType": "uint256",
          "name": "id",
          "type": "uint256"
        }
      ],
      "name": "totalSupply",
      "outputs": [
        {
          "internalType": "uint256",
          "name": "",
          "type": "uint256"
        }
      ],
      "stateMutability": "view",
      "type": "function"
    },
    {
      "inputs": [
        {
          "internalType": "uint256",
          "name": "",
          "type": "uint256"
        }
      ],
      "name": "traits",
      "outputs": [
        {
          "internalType": "string",
          "name": "category",
          "type": "string"
        },
        {
          "internalType": "uint256",
          "name": "quantity",
          "type": "uint256"
        },
        {
          "internalType": "bool",
          "name": "set",
          "type": "bool"
        }
      ],
      "stateMutability": "view",
      "type": "function"
    },
    {
      "inputs": [
        {
          "internalType": "address",
          "name": "newOwner",
          "type": "address"
        }
      ],
      "name": "transferOwnership",
      "outputs": [],
      "stateMutability": "nonpayable",
      "type": "function"
    },
    {
      "inputs": [
        {
          "internalType": "uint256",
          "name": "tokenID",
          "type": "uint256"
        }
      ],
      "name": "uri",
      "outputs": [
        {
          "internalType": "string",
          "name": "",
          "type": "string"
        }
      ],
      "stateMutability": "view",
      "type": "function"
    },
    {
      "inputs": [
        {
          "internalType": "uint256",
          "name": "",
          "type": "uint256"
        }
      ],
      "name": "winners",
      "outputs": [
        {
          "internalType": "address",
          "name": "",
          "type": "address"
        }
      ],
      "stateMutability": "view",
      "type": "function"
    },
    {
      "inputs": [],
      "name": "withdraw",
      "outputs": [],
      "stateMutability": "nonpayable",
      "type": "function"
    }
  ],
  "bytecode": "0x60a06040526032600755600160085561044d600955601580546001600160a01b031916737a1bac17ccc5b313516c5e16fb24f7659aa5ebed1790557f4b09e658ed251bcafeebbc69400383d49f344ace09b9576fe248bb02c003fe9f6016556017805466010003000186a06001600160501b03199091161790553480156200008657600080fd5b5060405162003de538038062003de5833981016040819052620000a991620001d2565b601554604080518082019091526007815266139194d455505560ca1b60208201526001600160a01b0390911690620000e18162000158565b506001600160a01b0316608052620000f9336200016a565b60155460148054610100600160e81b0319166101006001600160a01b0390931692909202600160a81b600160e81b03191691909117600160a81b6001600160401b0385160217905560136200014f82826200034d565b50505062000419565b60026200016682826200034d565b5050565b600380546001600160a01b038381166001600160a01b0319831681179093556040519116919082907f8be0079c531659141344cd1fd0a4f28419497f9722a3daafe3b4186f6b6457e090600090a35050565b634e487b7160e01b600052604160045260246000fd5b60008060408385031215620001e657600080fd5b82516001600160401b038082168214620001ff57600080fd5b60208581015192945091818111156200021757600080fd5b8501601f810187136200022957600080fd5b8051828111156200023e576200023e620001bc565b604051601f8201601f19908116603f01168101908482118183101715620002695762000269620001bc565b8160405282815289868486010111156200028257600080fd5b600094505b82851015620002a6578385018601518186018701529385019362000287565b60008684830101528096505050505050509250929050565b600181811c90821680620002d357607f821691505b602082108103620002f457634e487b7160e01b600052602260045260246000fd5b50919050565b601f8211156200034857600081815260208120601f850160051c81016020861015620003235750805b601f850160051c820191505b8181101562000344578281556001016200032f565b5050505b505050565b81516001600160401b03811115620003695762000369620001bc565b62000381816200037a8454620002be565b84620002fa565b602080601f831160018114620003b95760008415620003a05750858301515b600019600386901b1c1916600185901b17855562000344565b600085815260208120601f198616915b82811015620003ea57888601518255948401946001909101908401620003c9565b5085821015620004095787850151600019600388901b60f8161c191681555b5050505050600190811b01905550565b6080516139a96200043c600039600081816109cb0152610a0d01526139a96000f3fe6080604052600436106102875760003560e01c80639010d07c1161015a578063d547741f116100c1578063f23f3ba51161007a578063f23f3ba514610832578063f242432a14610848578063f2fde38b14610868578063f6eaffc814610888578063f71d96cb146108a8578063f737d21d146108c857600080fd5b8063d547741f1461077c578063e0c862891461079c578063e433a584146107b1578063e89e106a146107cb578063e97dcb62146107e1578063e985e9c5146107e957600080fd5b8063b30906d411610113578063b30906d4146106c4578063ba0c60c9146106e4578063bd85b039146106fa578063bdf08b1114610727578063c6cdbe5e1461073c578063ca15c8731461075c57600080fd5b80639010d07c146105eb57806391d148541461060b578063a217fddf1461062b578063a22cb46514610640578063a2fb117514610660578063acb586df1461069657600080fd5b806336568abe116101fe578063528249a6116101b7578063528249a6146105135780635ebd9ded146105335780635fe8700514610553578063715018a61461058e57806381a7927e146105a35780638da5cb5b146105b957600080fd5b806336568abe146104405780633986c96c146104605780633ccfd60b146104805780634db0412c146104955780634e1273f4146104b75780634f558e79146104e457600080fd5b80632363903611610250578063236390361461036b578063248a9ca3146103815780632d72225b146103b15780632e0dcbf7146103e05780632eb2c2d6146104005780632f2ff15d1461042057600080fd5b8062fdd58e1461028c57806301ffc9a7146102bf5780630e89341c146102ef57806319b7b4111461031c5780631fe543e314610349575b600080fd5b34801561029857600080fd5b506102ac6102a7366004612c0f565b6108e8565b6040519081526020015b60405180910390f35b3480156102cb57600080fd5b506102df6102da366004612c4f565b610981565b60405190151581526020016102b6565b3480156102fb57600080fd5b5061030f61030a366004612c6c565b61098c565b6040516102b69190612cd5565b34801561032857600080fd5b506102ac610337366004612ce8565b600a6020526000908152604090205481565b34801561035557600080fd5b50610369610364366004612dd9565b6109c0565b005b34801561037757600080fd5b506102ac60125481565b34801561038d57600080fd5b506102ac61039c366004612c6c565b60009081526004602052604090206001015490565b3480156103bd57600080fd5b506103d16103cc366004612c6c565b610a48565b6040516102b693929190612e1f565b3480156103ec57600080fd5b506103696103fb366004612ea6565b610af6565b34801561040c57600080fd5b5061036961041b366004612f16565b610c38565b34801561042c57600080fd5b5061036961043b366004612fbf565b610c84565b34801561044c57600080fd5b5061036961045b366004612fbf565b610cae565b34801561046c57600080fd5b5061036961047b366004612feb565b610d28565b34801561048c57600080fd5b50610369610ed3565b3480156104a157600080fd5b506104aa610f0a565b6040516102b6919061306c565b3480156104c357600080fd5b506104d76104d23660046130ce565b610fe3565b6040516102b691906131c9565b3480156104f057600080fd5b506102df6104ff366004612c6c565b600090815260066020526040902054151590565b34801561051f57600080fd5b5061036961052e366004612c6c565b61110c565b34801561053f57600080fd5b506102ac61054e366004612c6c565b611238565b34801561055f57600080fd5b506102df61056e366004612ea6565b8051602081830181018051600c8252928201919093012091525460ff1681565b34801561059a57600080fd5b5061036961127f565b3480156105af57600080fd5b506102ac60085481565b3480156105c557600080fd5b506003546001600160a01b03165b6040516001600160a01b0390911681526020016102b6565b3480156105f757600080fd5b506105d36106063660046131dc565b611293565b34801561061757600080fd5b506102df610626366004612fbf565b6112b2565b34801561063757600080fd5b506102ac600081565b34801561064c57600080fd5b5061036961065b3660046131fe565b6112dd565b34801561066c57600080fd5b506105d361067b366004612c6c565b600d602052600090815260409020546001600160a01b031681565b3480156106a257600080fd5b506106b66106b1366004612c6c565b6112e8565b6040516102b692919061323a565b3480156106d057600080fd5b506102ac6106df366004612c6c565b6113c6565b3480156106f057600080fd5b506102ac60075481565b34801561070657600080fd5b506102ac610715366004612c6c565b60009081526006602052604090205490565b34801561073357600080fd5b506103696113e7565b34801561074857600080fd5b5061030f610757366004612c6c565b611403565b34801561076857600080fd5b506102ac610777366004612c6c565b6114af565b34801561078857600080fd5b50610369610797366004612fbf565b6114c6565b3480156107a857600080fd5b506103696114eb565b3480156107bd57600080fd5b506014546102df9060ff1681565b3480156107d757600080fd5b506102ac60185481565b610369611600565b3480156107f557600080fd5b506102df61080436600461325c565b6001600160a01b03918216600090815260016020908152604080832093909416825291909152205460ff1690565b34801561083e57600080fd5b506102ac60095481565b34801561085457600080fd5b50610369610863366004613286565b6117d9565b34801561087457600080fd5b50610369610883366004612ce8565b61181e565b34801561089457600080fd5b506102ac6108a3366004612c6c565b611894565b3480156108b457600080fd5b506105d36108c3366004612c6c565b6118a4565b3480156108d457600080fd5b506103696108e3366004612c6c565b6118ce565b60006001600160a01b0383166109585760405162461bcd60e51b815260206004820152602a60248201527f455243313135353a2061646472657373207a65726f206973206e6f742061207660448201526930b634b21037bbb732b960b11b60648201526084015b60405180910390fd5b506000818152602081815260408083206001600160a01b03861684529091529020545b92915050565b600061097b82611a9b565b6060601361099983611ac0565b6040516020016109aa929190613324565b6040516020818303038152906040529050919050565b336001600160a01b037f00000000000000000000000000000000000000000000000000000000000000001614610a3a5760405163073e64fd60e21b81523360048201526001600160a01b037f000000000000000000000000000000000000000000000000000000000000000016602482015260440161094f565b610a448282611b52565b5050565b600b60205260009081526040902080548190610a63906132ea565b80601f0160208091040260200160405190810160405280929190818152602001828054610a8f906132ea565b8015610adc5780601f10610ab157610100808354040283529160200191610adc565b820191906000526020600020905b815481529060010190602001808311610abf57829003601f168201915b50505050600183015460029093015491929160ff16905083565b610afe611b65565b600c81604051610b0e91906133bb565b9081526040519081900360200190205460ff1615610b7a5760405162461bcd60e51b815260206004820152602360248201527f61646443617465676f72793a2043617465676f727920616c726561647920616460448201526219195960ea1b606482015260840161094f565b6001600c82604051610b8c91906133bb565b908152604051908190036020019020805491151560ff19909216919091179055601180546001810182556000919091527f31ecc21a745e3968a04e9570e4425bc18fa8019c68028196b546d1669c200c6801610be8828261341d565b5060128054906000610bf9836134f2565b91905055507fdb74f4d32b97da9b3b9b907aa3fd5df938c018e13fe235d9883d0a0836c6bddb81604051610c2d9190612cd5565b60405180910390a150565b6001600160a01b038516331480610c545750610c548533610804565b610c705760405162461bcd60e51b815260040161094f9061350b565b610c7d8585858585611bbf565b5050505050565b600082815260046020526040902060010154610c9f81611daa565b610ca98383611db4565b505050565b6001600160a01b0381163314610d1e5760405162461bcd60e51b815260206004820152602f60248201527f416363657373436f6e74726f6c3a2063616e206f6e6c792072656e6f756e636560448201526e103937b632b9903337b91039b2b63360891b606482015260840161094f565b610a448282611dd6565b610d30611b65565b6000848152600b602052604090206002015460ff1615610d925760405162461bcd60e51b815260206004820152601e60248201527f61646454726169743a20547261697420494420616c7265616479207365740000604482015260640161094f565b600c8383604051610da4929190613559565b9081526040519081900360200190205460ff16610e035760405162461bcd60e51b815260206004820152601c60248201527f61646454726169743a2043617465676f7279206e6f742076616c696400000000604482015260640161094f565b604051806060016040528084848080601f016020809104026020016040519081016040528093929190818152602001838380828437600092018290525093855250505060208083018590526001604093840152878252600b90522081518190610e6c908261341d565b50602082015160018201556040918201516002909101805460ff19169115159190911790555184907f80a0b63fef5930c8bd938c280e8a07f2c0c586f3ec2b5bcc7451485194d2fdbd90610ec590869086908690613569565b60405180910390a250505050565b610edb611b65565b6040514790339082156108fc029083906000818181858888f19350505050158015610a44573d6000803e3d6000fd5b60606011805480602002602001604051908101604052809291908181526020016000905b82821015610fda578382906000526020600020018054610f4d906132ea565b80601f0160208091040260200160405190810160405280929190818152602001828054610f79906132ea565b8015610fc65780601f10610f9b57610100808354040283529160200191610fc6565b820191906000526020600020905b815481529060010190602001808311610fa957829003601f168201915b505050505081526020019060010190610f2e565b50505050905090565b606081518351146110485760405162461bcd60e51b815260206004820152602960248201527f455243313135353a206163636f756e747320616e6420696473206c656e677468604482015268040dad2e6dac2e8c6d60bb1b606482015260840161094f565b600083516001600160401b0381111561106357611063612d03565b60405190808252806020026020018201604052801561108c578160200160208202803683370190505b50905060005b8451811015611104576110d78582815181106110b0576110b06135a2565b60200260200101518583815181106110ca576110ca6135a2565b60200260200101516108e8565b8282815181106110e9576110e96135a2565b60209081029190910101526110fd816134f2565b9050611092565b509392505050565b611114611b65565b6000818152600b602052604090206002015460ff166111755760405162461bcd60e51b815260206004820152601d60248201527f72656d6f766554726169743a205472616974204944206e6f7420736574000000604482015260640161094f565b600081815260066020526040902054156111dd5760405162461bcd60e51b8152602060048201526024808201527f72656d6f766554726169743a20547261697420494420616c7265616479206d696044820152631b9d195960e21b606482015260840161094f565b6000818152600b60205260408120906111f68282612b59565b506000600182018190556002909101805460ff1916905560405182917f12b4ae8e0fa8f696ac4e098f64549294d3a237a15440f9f5cbcdbee8235982f091a250565b6000818152600b602052604081206002015460ff166112695760405162461bcd60e51b815260040161094f906135b8565b506000908152600b602052604090206001015490565b611287611b65565b6112916000611df8565b565b60008281526005602052604081206112ab9083611e4a565b9392505050565b60009182526004602090815260408084206001600160a01b0393909316845291905290205460ff1690565b610a44338383611e56565b6000818152600b60205260408120600201546060919060ff1661131d5760405162461bcd60e51b815260040161094f906135b8565b6000838152600b6020526040902060018101548154829061133d906132ea565b80601f0160208091040260200160405190810160405280929190818152602001828054611369906132ea565b80156113b65780601f1061138b576101008083540402835291602001916113b6565b820191906000526020600020905b81548152906001019060200180831161139957829003601f168201915b5050505050915091509150915091565b601081815481106113d657600080fd5b600091825260209091200154905081565b6113ef611b65565b6014805460ff19811660ff90911615179055565b6011818154811061141357600080fd5b90600052602060002001600091509050805461142e906132ea565b80601f016020809104026020016040519081016040528092919081815260200182805461145a906132ea565b80156114a75780601f1061147c576101008083540402835291602001916114a7565b820191906000526020600020905b81548152906001019060200180831161148a57829003601f168201915b505050505081565b600081815260056020526040812061097b90611f36565b6000828152600460205260409020600101546114e181611daa565b610ca98383611dd6565b6114f3611b65565b60145460ff1661153d5760405162461bcd60e51b8152602060048201526015602482015274131bdd1d195c9e481a5cc81b9bdd0818db1bdcd959605a1b604482015260640161094f565b6014546016546017546040516305d3b1d360e41b81526004810192909252600160a81b83046001600160401b03166024830152640100000000810461ffff16604483015263ffffffff808216606484015266010000000000009091041660848201526101009091046001600160a01b031690635d3b1d309060a4016020604051808303816000875af11580156115d7573d6000803e3d6000fd5b505050506040513d601f19601f820116820180604052508101906115fb91906135ef565b601855565b60145460ff16156116475760405162461bcd60e51b8152602060048201526011602482015270131bdd1d195c9e481a5cc818db1bdcd959607a1b604482015260640161094f565b6008543481111561168f5760405162461bcd60e51b81526020600482015260126024820152712737ba1032b737bab3b43a10333ab732399760711b604482015260640161094f565b600754336000908152600a60205260409020546116ad906001613608565b11156116fb5760405162461bcd60e51b815260206004820181905260248201527f596f752063616e277420656e746572206d6f7265207468616e20582074696d65604482015260640161094f565b60095460105411156117635760405162461bcd60e51b815260206004820152602b60248201527f4e756d626572206f662072656d61696e696e6720656e7472696573206973206960448201526a1b9cdd59999a58da595b9d60aa1b606482015260840161094f565b600e805460018181019092557fbb7b4a454dc3493923482f07822329ed19e8244eff582cc204f8554c3620c3fd0180546001600160a01b031916339081179091556000908152600a60205260409020546117bc91613608565b50600954601054036117d6576014805460ff191660011790555b50565b6001600160a01b0385163314806117f557506117f58533610804565b6118115760405162461bcd60e51b815260040161094f9061350b565b610c7d8585858585611f40565b611826611b65565b6001600160a01b03811661188b5760405162461bcd60e51b815260206004820152602660248201527f4f776e61626c653a206e6577206f776e657220697320746865207a65726f206160448201526564647265737360d01b606482015260840161094f565b6117d681611df8565b600f81815481106113d657600080fd5b600e81815481106118b457600080fd5b6000918252602090912001546001600160a01b0316905081565b6000818152600b602052604090206002015460ff166118ff5760405162461bcd60e51b815260040161094f906135b8565b60145460ff166119495760405162461bcd60e51b8152602060048201526015602482015274131bdd1d195c9e481a5cc81b9bdd0818db1bdcd959605a1b604482015260640161094f565b6000600e80549050600f600081548110611965576119656135a2565b906000526020600020015461197a919061361b565b90506119c8600e8281548110611992576119926135a2565b9060005260206000200160009054906101000a90046001600160a01b031683600160405180602001604052806000815250612078565b6000828152600b602052604081206001018054916119e58361363d565b9091555050600e80546119fa90600190613654565b81548110611a0a57611a0a6135a2565b600091825260209091200154600e80546001600160a01b039092169183908110611a3657611a366135a2565b9060005260206000200160006101000a8154816001600160a01b0302191690836001600160a01b03160217905550600e805480611a7557611a75613667565b600082815260209020810160001990810180546001600160a01b03191690550190555050565b60006001600160e01b03198216635a05180f60e01b148061097b575061097b8261219b565b60606000611acd836121c0565b60010190506000816001600160401b03811115611aec57611aec612d03565b6040519080825280601f01601f191660200182016040528015611b16576020820181803683370190505b5090508181016020015b600019016f181899199a1a9b1b9c1cb0b131b232b360811b600a86061a8153600a8504945084611b2057509392505050565b8051610ca990600f906020840190612b93565b6003546001600160a01b031633146112915760405162461bcd60e51b815260206004820181905260248201527f4f776e61626c653a2063616c6c6572206973206e6f7420746865206f776e6572604482015260640161094f565b8151835114611c215760405162461bcd60e51b815260206004820152602860248201527f455243313135353a2069647320616e6420616d6f756e7473206c656e677468206044820152670dad2e6dac2e8c6d60c31b606482015260840161094f565b6001600160a01b038416611c475760405162461bcd60e51b815260040161094f9061367d565b33611c56818787878787612298565b60005b8451811015611d3c576000858281518110611c7657611c766135a2565b602002602001015190506000858381518110611c9457611c946135a2565b602090810291909101810151600084815280835260408082206001600160a01b038e168352909352919091205490915081811015611ce45760405162461bcd60e51b815260040161094f906136c2565b6000838152602081815260408083206001600160a01b038e8116855292528083208585039055908b16825281208054849290611d21908490613608565b9250508190555050505080611d35906134f2565b9050611c59565b50846001600160a01b0316866001600160a01b0316826001600160a01b03167f4a39dc06d4c0dbc64b70af90fd698a233a518aa5d07e595d983b8c0526c8f7fb8787604051611d8c92919061370c565b60405180910390a4611da28187878787876122a6565b505050505050565b6117d68133612401565b611dbe828261245a565b6000828152600560205260409020610ca990826124e0565b611de082826124f5565b6000828152600560205260409020610ca9908261255c565b600380546001600160a01b038381166001600160a01b0319831681179093556040519116919082907f8be0079c531659141344cd1fd0a4f28419497f9722a3daafe3b4186f6b6457e090600090a35050565b60006112ab8383612571565b816001600160a01b0316836001600160a01b031603611ec95760405162461bcd60e51b815260206004820152602960248201527f455243313135353a2073657474696e6720617070726f76616c20737461747573604482015268103337b91039b2b63360b91b606482015260840161094f565b6001600160a01b03838116600081815260016020908152604080832094871680845294825291829020805460ff191686151590811790915591519182527f17307eab39ab6107e8899845ad3d59bd9653f200f220920489ca2b5937696c31910160405180910390a3505050565b600061097b825490565b6001600160a01b038416611f665760405162461bcd60e51b815260040161094f9061367d565b336000611f728561259b565b90506000611f7f8561259b565b9050611f8f838989858589612298565b6000868152602081815260408083206001600160a01b038c16845290915290205485811015611fd05760405162461bcd60e51b815260040161094f906136c2565b6000878152602081815260408083206001600160a01b038d8116855292528083208985039055908a1682528120805488929061200d908490613608565b909155505060408051888152602081018890526001600160a01b03808b16928c821692918816917fc3d58168c5ae7397731d063d5bbf3d657854427343f4c083240f7aacaa2d0f62910160405180910390a461206d848a8a8a8a8a6125e6565b505050505050505050565b6001600160a01b0384166120d85760405162461bcd60e51b815260206004820152602160248201527f455243313135353a206d696e7420746f20746865207a65726f206164647265736044820152607360f81b606482015260840161094f565b3360006120e48561259b565b905060006120f18561259b565b905061210283600089858589612298565b6000868152602081815260408083206001600160a01b038b16845290915281208054879290612132908490613608565b909155505060408051878152602081018790526001600160a01b03808a1692600092918716917fc3d58168c5ae7397731d063d5bbf3d657854427343f4c083240f7aacaa2d0f62910160405180910390a4612192836000898989896125e6565b50505050505050565b60006001600160e01b03198216637965db0b60e01b148061097b575061097b826126a1565b60008072184f03e93ff9f4daa797ed6e38ed64bf6a1f0160401b83106121ff5772184f03e93ff9f4daa797ed6e38ed64bf6a1f0160401b830492506040015b6d04ee2d6d415b85acef8100000000831061222b576d04ee2d6d415b85acef8100000000830492506020015b662386f26fc10000831061224957662386f26fc10000830492506010015b6305f5e1008310612261576305f5e100830492506008015b612710831061227557612710830492506004015b60648310612287576064830492506002015b600a831061097b5760010192915050565b611da28686868686866126f1565b6001600160a01b0384163b15611da25760405163bc197c8160e01b81526001600160a01b0385169063bc197c81906122ea908990899088908890889060040161373a565b6020604051808303816000875af1925050508015612325575060408051601f3d908101601f1916820190925261232291810190613798565b60015b6123d1576123316137b5565b806308c379a00361236a57506123456137d1565b80612350575061236c565b8060405162461bcd60e51b815260040161094f9190612cd5565b505b60405162461bcd60e51b815260206004820152603460248201527f455243313135353a207472616e7366657220746f206e6f6e2d455243313135356044820152732932b1b2b4bb32b91034b6b83632b6b2b73a32b960611b606482015260840161094f565b6001600160e01b0319811663bc197c8160e01b146121925760405162461bcd60e51b815260040161094f9061385a565b61240b82826112b2565b610a44576124188161286a565b61242383602061287c565b6040516020016124349291906138a2565b60408051601f198184030181529082905262461bcd60e51b825261094f91600401612cd5565b61246482826112b2565b610a445760008281526004602090815260408083206001600160a01b03851684529091529020805460ff1916600117905561249c3390565b6001600160a01b0316816001600160a01b0316837f2f8788117e7eff1d82e926ec794901d17c78024a50270940304540a733656f0d60405160405180910390a45050565b60006112ab836001600160a01b038416612a17565b6124ff82826112b2565b15610a445760008281526004602090815260408083206001600160a01b0385168085529252808320805460ff1916905551339285917ff6391f5c32d9c69d2a47ea670b442974b53935d1edc7fd64eb21e047a839171b9190a45050565b60006112ab836001600160a01b038416612a66565b6000826000018281548110612588576125886135a2565b9060005260206000200154905092915050565b604080516001808252818301909252606091600091906020808301908036833701905050905082816000815181106125d5576125d56135a2565b602090810291909101015292915050565b6001600160a01b0384163b15611da25760405163f23a6e6160e01b81526001600160a01b0385169063f23a6e619061262a9089908990889088908890600401613917565b6020604051808303816000875af1925050508015612665575060408051601f3d908101601f1916820190925261266291810190613798565b60015b612671576123316137b5565b6001600160e01b0319811663f23a6e6160e01b146121925760405162461bcd60e51b815260040161094f9061385a565b60006001600160e01b03198216636cdb3d1360e11b14806126d257506001600160e01b031982166303a24d0760e21b145b8061097b57506301ffc9a760e01b6001600160e01b031983161461097b565b6001600160a01b0385166127785760005b83518110156127765782818151811061271d5761271d6135a2565b60200260200101516006600086848151811061273b5761273b6135a2565b6020026020010151815260200190815260200160002060008282546127609190613608565b9091555061276f9050816134f2565b9050612702565b505b6001600160a01b038416611da25760005b83518110156121925760008482815181106127a6576127a66135a2565b6020026020010151905060008483815181106127c4576127c46135a2565b60200260200101519050600060066000848152602001908152602001600020549050818110156128475760405162461bcd60e51b815260206004820152602860248201527f455243313135353a206275726e20616d6f756e74206578636565647320746f74604482015267616c537570706c7960c01b606482015260840161094f565b60009283526006602052604090922091039055612863816134f2565b9050612789565b606061097b6001600160a01b03831660145b6060600061288b83600261395c565b612896906002613608565b6001600160401b038111156128ad576128ad612d03565b6040519080825280601f01601f1916602001820160405280156128d7576020820181803683370190505b509050600360fc1b816000815181106128f2576128f26135a2565b60200101906001600160f81b031916908160001a905350600f60fb1b81600181518110612921576129216135a2565b60200101906001600160f81b031916908160001a905350600061294584600261395c565b612950906001613608565b90505b60018111156129c8576f181899199a1a9b1b9c1cb0b131b232b360811b85600f1660108110612984576129846135a2565b1a60f81b82828151811061299a5761299a6135a2565b60200101906001600160f81b031916908160001a90535060049490941c936129c18161363d565b9050612953565b5083156112ab5760405162461bcd60e51b815260206004820181905260248201527f537472696e67733a20686578206c656e67746820696e73756666696369656e74604482015260640161094f565b6000818152600183016020526040812054612a5e5750815460018181018455600084815260208082209093018490558454848252828601909352604090209190915561097b565b50600061097b565b60008181526001830160205260408120548015612b4f576000612a8a600183613654565b8554909150600090612a9e90600190613654565b9050818114612b03576000866000018281548110612abe57612abe6135a2565b9060005260206000200154905080876000018481548110612ae157612ae16135a2565b6000918252602080832090910192909255918252600188019052604090208390555b8554869080612b1457612b14613667565b60019003818190600052602060002001600090559055856001016000868152602001908152602001600020600090556001935050505061097b565b600091505061097b565b508054612b65906132ea565b6000825580601f10612b75575050565b601f0160209004906000526020600020908101906117d69190612bde565b828054828255906000526020600020908101928215612bce579160200282015b82811115612bce578251825591602001919060010190612bb3565b50612bda929150612bde565b5090565b5b80821115612bda5760008155600101612bdf565b80356001600160a01b0381168114612c0a57600080fd5b919050565b60008060408385031215612c2257600080fd5b612c2b83612bf3565b946020939093013593505050565b6001600160e01b0319811681146117d657600080fd5b600060208284031215612c6157600080fd5b81356112ab81612c39565b600060208284031215612c7e57600080fd5b5035919050565b60005b83811015612ca0578181015183820152602001612c88565b50506000910152565b60008151808452612cc1816020860160208601612c85565b601f01601f19169290920160200192915050565b6020815260006112ab6020830184612ca9565b600060208284031215612cfa57600080fd5b6112ab82612bf3565b634e487b7160e01b600052604160045260246000fd5b601f8201601f191681016001600160401b0381118282101715612d3e57612d3e612d03565b6040525050565b60006001600160401b03821115612d5e57612d5e612d03565b5060051b60200190565b600082601f830112612d7957600080fd5b81356020612d8682612d45565b604051612d938282612d19565b83815260059390931b8501820192828101915086841115612db357600080fd5b8286015b84811015612dce5780358352918301918301612db7565b509695505050505050565b60008060408385031215612dec57600080fd5b8235915060208301356001600160401b03811115612e0957600080fd5b612e1585828601612d68565b9150509250929050565b606081526000612e326060830186612ca9565b602083019490945250901515604090910152919050565b60006001600160401b03831115612e6257612e62612d03565b604051612e79601f8501601f191660200182612d19565b809150838152848484011115612e8e57600080fd5b83836020830137600060208583010152509392505050565b600060208284031215612eb857600080fd5b81356001600160401b03811115612ece57600080fd5b8201601f81018413612edf57600080fd5b612eee84823560208401612e49565b949350505050565b600082601f830112612f0757600080fd5b6112ab83833560208501612e49565b600080600080600060a08688031215612f2e57600080fd5b612f3786612bf3565b9450612f4560208701612bf3565b935060408601356001600160401b0380821115612f6157600080fd5b612f6d89838a01612d68565b94506060880135915080821115612f8357600080fd5b612f8f89838a01612d68565b93506080880135915080821115612fa557600080fd5b50612fb288828901612ef6565b9150509295509295909350565b60008060408385031215612fd257600080fd5b82359150612fe260208401612bf3565b90509250929050565b6000806000806060858703121561300157600080fd5b8435935060208501356001600160401b038082111561301f57600080fd5b818701915087601f83011261303357600080fd5b81358181111561304257600080fd5b88602082850101111561305457600080fd5b95986020929092019750949560400135945092505050565b6000602080830181845280855180835260408601915060408160051b870101925083870160005b828110156130c157603f198886030184526130af858351612ca9565b94509285019290850190600101613093565b5092979650505050505050565b600080604083850312156130e157600080fd5b82356001600160401b03808211156130f857600080fd5b818501915085601f83011261310c57600080fd5b8135602061311982612d45565b6040516131268282612d19565b83815260059390931b850182019282810191508984111561314657600080fd5b948201945b8386101561316b5761315c86612bf3565b8252948201949082019061314b565b9650508601359250508082111561318157600080fd5b50612e1585828601612d68565b600081518084526020808501945080840160005b838110156131be578151875295820195908201906001016131a2565b509495945050505050565b6020815260006112ab602083018461318e565b600080604083850312156131ef57600080fd5b50508035926020909101359150565b6000806040838503121561321157600080fd5b61321a83612bf3565b91506020830135801515811461322f57600080fd5b809150509250929050565b60408152600061324d6040830185612ca9565b90508260208301529392505050565b6000806040838503121561326f57600080fd5b61327883612bf3565b9150612fe260208401612bf3565b600080600080600060a0868803121561329e57600080fd5b6132a786612bf3565b94506132b560208701612bf3565b9350604086013592506060860135915060808601356001600160401b038111156132de57600080fd5b612fb288828901612ef6565b600181811c908216806132fe57607f821691505b60208210810361331e57634e487b7160e01b600052602260045260246000fd5b50919050565b6000808454613332816132ea565b6001828116801561334a576001811461335f5761338e565b60ff198416875282151583028701945061338e565b8860005260208060002060005b858110156133855781548a82015290840190820161336c565b50505082870194505b5050505083516133a2818360208801612c85565b64173539b7b760d91b9101908152600501949350505050565b600082516133cd818460208701612c85565b9190910192915050565b601f821115610ca957600081815260208120601f850160051c810160208610156133fe5750805b601f850160051c820191505b81811015611da25782815560010161340a565b81516001600160401b0381111561343657613436612d03565b61344a8161344484546132ea565b846133d7565b602080601f83116001811461347f57600084156134675750858301515b600019600386901b1c1916600185901b178555611da2565b600085815260208120601f198616915b828110156134ae5788860151825594840194600190910190840161348f565b50858210156134cc5787850151600019600388901b60f8161c191681555b5050505050600190811b01905550565b634e487b7160e01b600052601160045260246000fd5b600060018201613504576135046134dc565b5060010190565b6020808252602e908201527f455243313135353a2063616c6c6572206973206e6f7420746f6b656e206f776e60408201526d195c881bdc88185c1c1c9bdd995960921b606082015260800190565b8183823760009101908152919050565b604081528260408201528284606083013760006060848301015260006060601f19601f8601168301019050826020830152949350505050565b634e487b7160e01b600052603260045260246000fd5b60208082526017908201527f67657454726169743a207472616974206e6f7420736574000000000000000000604082015260600190565b60006020828403121561360157600080fd5b5051919050565b8082018082111561097b5761097b6134dc565b60008261363857634e487b7160e01b600052601260045260246000fd5b500690565b60008161364c5761364c6134dc565b506000190190565b8181038181111561097b5761097b6134dc565b634e487b7160e01b600052603160045260246000fd5b60208082526025908201527f455243313135353a207472616e7366657220746f20746865207a65726f206164604082015264647265737360d81b606082015260800190565b6020808252602a908201527f455243313135353a20696e73756666696369656e742062616c616e636520666f60408201526939103a3930b739b332b960b11b606082015260800190565b60408152600061371f604083018561318e565b8281036020840152613731818561318e565b95945050505050565b6001600160a01b0386811682528516602082015260a0604082018190526000906137669083018661318e565b8281036060840152613778818661318e565b9050828103608084015261378c8185612ca9565b98975050505050505050565b6000602082840312156137aa57600080fd5b81516112ab81612c39565b600060033d11156137ce5760046000803e5060005160e01c5b90565b600060443d10156137df5790565b6040516003193d81016004833e81513d6001600160401b03816024840111818411171561380e57505050505090565b82850191508151818111156138265750505050505090565b843d87010160208285010111156138405750505050505090565b61384f60208286010187612d19565b509095945050505050565b60208082526028908201527f455243313135353a204552433131353552656365697665722072656a656374656040820152676420746f6b656e7360c01b606082015260800190565b7f416363657373436f6e74726f6c3a206163636f756e74200000000000000000008152600083516138da816017850160208801612c85565b7001034b99036b4b9b9b4b733903937b6329607d1b601791840191820152835161390b816028840160208801612c85565b01602801949350505050565b6001600160a01b03868116825285166020820152604081018490526060810183905260a06080820181905260009061395190830184612ca9565b979650505050505050565b808202811582820484141761097b5761097b6134dc56fea26469706673582212206391cf2d32c90adc4d8fd2fd92b4649dbbbaccf219817f2eadbfbc7253cbe75364736f6c63430008110033",
  "linkReferences": {},
  "deployedLinkReferences": {}
}