{
  "_format": "hh-sol-artifact-1",
  "contractName": "Lottery",
  "sourceName": "contracts/Lottery.sol",
  "abi": [
    {
      "inputs": [
        {
          "internalType": "uint64",
          "name": "subscriptionId",
          "type": "uint64"
        },
        {
          "internalType": "string",
          "name": "_baseURI",
          "type": "string"
        }
      ],
      "stateMutability": "nonpayable",
      "type": "constructor"
    },
    {
      "inputs": [
        {
          "internalType": "address",
          "name": "have",
          "type": "address"
        },
        {
          "internalType": "address",
          "name": "want",
          "type": "address"
        }
      ],
      "name": "OnlyCoordinatorCanFulfill",
      "type": "error"
    },
    {
      "anonymous": false,
      "inputs": [
        {
          "indexed": true,
          "internalType": "address",
          "name": "account",
          "type": "address"
        },
        {
          "indexed": true,
          "internalType": "address",
          "name": "operator",
          "type": "address"
        },
        {
          "indexed": false,
          "internalType": "bool",
          "name": "approved",
          "type": "bool"
        }
      ],
      "name": "ApprovalForAll",
      "type": "event"
    },
    {
      "anonymous": false,
      "inputs": [
        {
          "indexed": false,
          "internalType": "string",
          "name": "_category",
          "type": "string"
        }
      ],
      "name": "CategoryAdded",
      "type": "event"
    },
    {
      "anonymous": false,
      "inputs": [
        {
          "indexed": true,
          "internalType": "address",
          "name": "previousOwner",
          "type": "address"
        },
        {
          "indexed": true,
          "internalType": "address",
          "name": "newOwner",
          "type": "address"
        }
      ],
      "name": "OwnershipTransferred",
      "type": "event"
    },
    {
      "anonymous": false,
      "inputs": [
        {
          "indexed": true,
          "internalType": "bytes32",
          "name": "role",
          "type": "bytes32"
        },
        {
          "indexed": true,
          "internalType": "bytes32",
          "name": "previousAdminRole",
          "type": "bytes32"
        },
        {
          "indexed": true,
          "internalType": "bytes32",
          "name": "newAdminRole",
          "type": "bytes32"
        }
      ],
      "name": "RoleAdminChanged",
      "type": "event"
    },
    {
      "anonymous": false,
      "inputs": [
        {
          "indexed": true,
          "internalType": "bytes32",
          "name": "role",
          "type": "bytes32"
        },
        {
          "indexed": true,
          "internalType": "address",
          "name": "account",
          "type": "address"
        },
        {
          "indexed": true,
          "internalType": "address",
          "name": "sender",
          "type": "address"
        }
      ],
      "name": "RoleGranted",
      "type": "event"
    },
    {
      "anonymous": false,
      "inputs": [
        {
          "indexed": true,
          "internalType": "bytes32",
          "name": "role",
          "type": "bytes32"
        },
        {
          "indexed": true,
          "internalType": "address",
          "name": "account",
          "type": "address"
        },
        {
          "indexed": true,
          "internalType": "address",
          "name": "sender",
          "type": "address"
        }
      ],
      "name": "RoleRevoked",
      "type": "event"
    },
    {
      "anonymous": false,
      "inputs": [
        {
          "indexed": true,
          "internalType": "uint256",
          "name": "_traitId",
          "type": "uint256"
        },
        {
          "indexed": false,
          "internalType": "string",
          "name": "_category",
          "type": "string"
        },
        {
          "indexed": false,
          "internalType": "uint256",
          "name": "_quantity",
          "type": "uint256"
        }
      ],
      "name": "TraitAdded",
      "type": "event"
    },
    {
      "anonymous": false,
      "inputs": [
        {
          "indexed": true,
          "internalType": "uint256",
          "name": "_traitId",
          "type": "uint256"
        }
      ],
      "name": "TraitRemoved",
      "type": "event"
    },
    {
      "anonymous": false,
      "inputs": [
        {
          "indexed": true,
          "internalType": "address",
          "name": "operator",
          "type": "address"
        },
        {
          "indexed": true,
          "internalType": "address",
          "name": "from",
          "type": "address"
        },
        {
          "indexed": true,
          "internalType": "address",
          "name": "to",
          "type": "address"
        },
        {
          "indexed": false,
          "internalType": "uint256[]",
          "name": "ids",
          "type": "uint256[]"
        },
        {
          "indexed": false,
          "internalType": "uint256[]",
          "name": "values",
          "type": "uint256[]"
        }
      ],
      "name": "TransferBatch",
      "type": "event"
    },
    {
      "anonymous": false,
      "inputs": [
        {
          "indexed": true,
          "internalType": "address",
          "name": "operator",
          "type": "address"
        },
        {
          "indexed": true,
          "internalType": "address",
          "name": "from",
          "type": "address"
        },
        {
          "indexed": true,
          "internalType": "address",
          "name": "to",
          "type": "address"
        },
        {
          "indexed": false,
          "internalType": "uint256",
          "name": "id",
          "type": "uint256"
        },
        {
          "indexed": false,
          "internalType": "uint256",
          "name": "value",
          "type": "uint256"
        }
      ],
      "name": "TransferSingle",
      "type": "event"
    },
    {
      "anonymous": false,
      "inputs": [
        {
          "indexed": false,
          "internalType": "string",
          "name": "value",
          "type": "string"
        },
        {
          "indexed": true,
          "internalType": "uint256",
          "name": "id",
          "type": "uint256"
        }
      ],
      "name": "URI",
      "type": "event"
    },
    {
      "inputs": [],
      "name": "DEFAULT_ADMIN_ROLE",
      "outputs": [
        {
          "internalType": "bytes32",
          "name": "",
          "type": "bytes32"
        }
      ],
      "stateMutability": "view",
      "type": "function"
    },
    {
      "inputs": [
        {
          "internalType": "string",
          "name": "_category",
          "type": "string"
        }
      ],
      "name": "addCategory",
      "outputs": [],
      "stateMutability": "nonpayable",
      "type": "function"
    },
    {
      "inputs": [
        {
          "internalType": "uint256",
          "name": "_tokenID",
          "type": "uint256"
        },
        {
          "internalType": "string",
          "name": "_category",
          "type": "string"
        },
        {
          "internalType": "uint256",
          "name": "_quantity",
          "type": "uint256"
        }
      ],
      "name": "addTrait",
      "outputs": [],
      "stateMutability": "nonpayable",
      "type": "function"
    },
    {
      "inputs": [
        {
          "internalType": "address",
          "name": "",
          "type": "address"
        }
      ],
      "name": "amountEntries",
      "outputs": [
        {
          "internalType": "uint256",
          "name": "",
          "type": "uint256"
        }
      ],
      "stateMutability": "view",
      "type": "function"
    },
    {
      "inputs": [
        {
          "internalType": "address",
          "name": "account",
          "type": "address"
        },
        {
          "internalType": "uint256",
          "name": "id",
          "type": "uint256"
        }
      ],
      "name": "balanceOf",
      "outputs": [
        {
          "internalType": "uint256",
          "name": "",
          "type": "uint256"
        }
      ],
      "stateMutability": "view",
      "type": "function"
    },
    {
      "inputs": [
        {
          "internalType": "address[]",
          "name": "accounts",
          "type": "address[]"
        },
        {
          "internalType": "uint256[]",
          "name": "ids",
          "type": "uint256[]"
        }
      ],
      "name": "balanceOfBatch",
      "outputs": [
        {
          "internalType": "uint256[]",
          "name": "",
          "type": "uint256[]"
        }
      ],
      "stateMutability": "view",
      "type": "function"
    },
    {
      "inputs": [
        {
          "internalType": "uint256",
          "name": "",
          "type": "uint256"
        }
      ],
      "name": "categories",
      "outputs": [
        {
          "internalType": "string",
          "name": "",
          "type": "string"
        }
      ],
      "stateMutability": "view",
      "type": "function"
    },
    {
      "inputs": [],
      "name": "categoryPointer",
      "outputs": [
        {
          "internalType": "uint256",
          "name": "",
          "type": "uint256"
        }
      ],
      "stateMutability": "view",
      "type": "function"
    },
    {
      "inputs": [
        {
          "internalType": "string",
          "name": "",
          "type": "string"
        }
      ],
      "name": "categoryValidation",
      "outputs": [
        {
          "internalType": "bool",
          "name": "",
          "type": "bool"
        }
      ],
      "stateMutability": "view",
      "type": "function"
    },
    {
      "inputs": [],
      "name": "enter",
      "outputs": [],
      "stateMutability": "payable",
      "type": "function"
    },
    {
      "inputs": [
        {
          "internalType": "uint256",
          "name": "",
          "type": "uint256"
        }
      ],
      "name": "entries",
      "outputs": [
        {
          "internalType": "uint256",
          "name": "",
          "type": "uint256"
        }
      ],
      "stateMutability": "view",
      "type": "function"
    },
    {
      "inputs": [
        {
          "internalType": "uint256",
          "name": "id",
          "type": "uint256"
        }
      ],
      "name": "exists",
      "outputs": [
        {
          "internalType": "bool",
          "name": "",
          "type": "bool"
        }
      ],
      "stateMutability": "view",
      "type": "function"
    },
    {
      "inputs": [],
      "name": "getCategories",
      "outputs": [
        {
          "internalType": "string[]",
          "name": "",
          "type": "string[]"
        }
      ],
      "stateMutability": "view",
      "type": "function"
    },
    {
      "inputs": [
        {
          "internalType": "bytes32",
          "name": "role",
          "type": "bytes32"
        }
      ],
      "name": "getRoleAdmin",
      "outputs": [
        {
          "internalType": "bytes32",
          "name": "",
          "type": "bytes32"
        }
      ],
      "stateMutability": "view",
      "type": "function"
    },
    {
      "inputs": [
        {
          "internalType": "bytes32",
          "name": "role",
          "type": "bytes32"
        },
        {
          "internalType": "uint256",
          "name": "index",
          "type": "uint256"
        }
      ],
      "name": "getRoleMember",
      "outputs": [
        {
          "internalType": "address",
          "name": "",
          "type": "address"
        }
      ],
      "stateMutability": "view",
      "type": "function"
    },
    {
      "inputs": [
        {
          "internalType": "bytes32",
          "name": "role",
          "type": "bytes32"
        }
      ],
      "name": "getRoleMemberCount",
      "outputs": [
        {
          "internalType": "uint256",
          "name": "",
          "type": "uint256"
        }
      ],
      "stateMutability": "view",
      "type": "function"
    },
    {
      "inputs": [
        {
          "internalType": "uint256",
          "name": "tokenID",
          "type": "uint256"
        }
      ],
      "name": "getTrait",
      "outputs": [
        {
          "internalType": "string",
          "name": "",
          "type": "string"
        },
        {
          "internalType": "uint256",
          "name": "",
          "type": "uint256"
        }
      ],
      "stateMutability": "view",
      "type": "function"
    },
    {
      "inputs": [
        {
          "internalType": "bytes32",
          "name": "role",
          "type": "bytes32"
        },
        {
          "internalType": "address",
          "name": "account",
          "type": "address"
        }
      ],
      "name": "grantRole",
      "outputs": [],
      "stateMutability": "nonpayable",
      "type": "function"
    },
    {
      "inputs": [
        {
          "internalType": "bytes32",
          "name": "role",
          "type": "bytes32"
        },
        {
          "internalType": "address",
          "name": "account",
          "type": "address"
        }
      ],
      "name": "hasRole",
      "outputs": [
        {
          "internalType": "bool",
          "name": "",
          "type": "bool"
        }
      ],
      "stateMutability": "view",
      "type": "function"
    },
    {
      "inputs": [
        {
          "internalType": "address",
          "name": "account",
          "type": "address"
        },
        {
          "internalType": "address",
          "name": "operator",
          "type": "address"
        }
      ],
      "name": "isApprovedForAll",
      "outputs": [
        {
          "internalType": "bool",
          "name": "",
          "type": "bool"
        }
      ],
      "stateMutability": "view",
      "type": "function"
    },
    {
      "inputs": [],
      "name": "lotteryClosed",
      "outputs": [
        {
          "internalType": "bool",
          "name": "",
          "type": "bool"
        }
      ],
      "stateMutability": "view",
      "type": "function"
    },
    {
      "inputs": [],
      "name": "maxEntries",
      "outputs": [
        {
          "internalType": "uint256",
          "name": "",
          "type": "uint256"
        }
      ],
      "stateMutability": "view",
      "type": "function"
    },
    {
      "inputs": [],
      "name": "max_mint_allowed",
      "outputs": [
        {
          "internalType": "uint256",
          "name": "",
          "type": "uint256"
        }
      ],
      "stateMutability": "view",
      "type": "function"
    },
    {
      "inputs": [],
      "name": "owner",
      "outputs": [
        {
          "internalType": "address",
          "name": "",
          "type": "address"
        }
      ],
      "stateMutability": "view",
      "type": "function"
    },
    {
      "inputs": [
        {
          "internalType": "uint256",
          "name": "tokenID",
          "type": "uint256"
        }
      ],
      "name": "pickWinner",
      "outputs": [],
      "stateMutability": "nonpayable",
      "type": "function"
    },
    {
      "inputs": [
        {
          "internalType": "uint256",
          "name": "",
          "type": "uint256"
        }
      ],
      "name": "players",
      "outputs": [
        {
          "internalType": "address",
          "name": "",
          "type": "address"
        }
      ],
      "stateMutability": "view",
      "type": "function"
    },
    {
      "inputs": [],
      "name": "priceSale",
      "outputs": [
        {
          "internalType": "uint256",
          "name": "",
          "type": "uint256"
        }
      ],
      "stateMutability": "view",
      "type": "function"
    },
    {
      "inputs": [
        {
          "internalType": "uint256",
          "name": "requestId",
          "type": "uint256"
        },
        {
          "internalType": "uint256[]",
          "name": "randomWords",
          "type": "uint256[]"
        }
      ],
      "name": "rawFulfillRandomWords",
      "outputs": [],
      "stateMutability": "nonpayable",
      "type": "function"
    },
    {
      "inputs": [
        {
          "internalType": "uint256",
          "name": "_tokenID",
          "type": "uint256"
        }
      ],
      "name": "removeTrait",
      "outputs": [],
      "stateMutability": "nonpayable",
      "type": "function"
    },
    {
      "inputs": [],
      "name": "renounceOwnership",
      "outputs": [],
      "stateMutability": "nonpayable",
      "type": "function"
    },
    {
      "inputs": [
        {
          "internalType": "bytes32",
          "name": "role",
          "type": "bytes32"
        },
        {
          "internalType": "address",
          "name": "account",
          "type": "address"
        }
      ],
      "name": "renounceRole",
      "outputs": [],
      "stateMutability": "nonpayable",
      "type": "function"
    },
    {
      "inputs": [],
      "name": "requestRandomWords",
      "outputs": [],
      "stateMutability": "nonpayable",
      "type": "function"
    },
    {
      "inputs": [
        {
          "internalType": "bytes32",
          "name": "role",
          "type": "bytes32"
        },
        {
          "internalType": "address",
          "name": "account",
          "type": "address"
        }
      ],
      "name": "revokeRole",
      "outputs": [],
      "stateMutability": "nonpayable",
      "type": "function"
    },
    {
      "inputs": [
        {
          "internalType": "uint256",
          "name": "",
          "type": "uint256"
        }
      ],
      "name": "s_randomWords",
      "outputs": [
        {
          "internalType": "uint256",
          "name": "",
          "type": "uint256"
        }
      ],
      "stateMutability": "view",
      "type": "function"
    },
    {
      "inputs": [],
      "name": "s_requestId",
      "outputs": [
        {
          "internalType": "uint256",
          "name": "",
          "type": "uint256"
        }
      ],
      "stateMutability": "view",
      "type": "function"
    },
    {
      "inputs": [
        {
          "internalType": "address",
          "name": "from",
          "type": "address"
        },
        {
          "internalType": "address",
          "name": "to",
          "type": "address"
        },
        {
          "internalType": "uint256[]",
          "name": "ids",
          "type": "uint256[]"
        },
        {
          "internalType": "uint256[]",
          "name": "amounts",
          "type": "uint256[]"
        },
        {
          "internalType": "bytes",
          "name": "data",
          "type": "bytes"
        }
      ],
      "name": "safeBatchTransferFrom",
      "outputs": [],
      "stateMutability": "nonpayable",
      "type": "function"
    },
    {
      "inputs": [
        {
          "internalType": "address",
          "name": "from",
          "type": "address"
        },
        {
          "internalType": "address",
          "name": "to",
          "type": "address"
        },
        {
          "internalType": "uint256",
          "name": "id",
          "type": "uint256"
        },
        {
          "internalType": "uint256",
          "name": "amount",
          "type": "uint256"
        },
        {
          "internalType": "bytes",
          "name": "data",
          "type": "bytes"
        }
      ],
      "name": "safeTransferFrom",
      "outputs": [],
      "stateMutability": "nonpayable",
      "type": "function"
    },
    {
      "inputs": [
        {
          "internalType": "address",
          "name": "operator",
          "type": "address"
        },
        {
          "internalType": "bool",
          "name": "approved",
          "type": "bool"
        }
      ],
      "name": "setApprovalForAll",
      "outputs": [],
      "stateMutability": "nonpayable",
      "type": "function"
    },
    {
      "inputs": [
        {
          "internalType": "bytes4",
          "name": "interfaceId",
          "type": "bytes4"
        }
      ],
      "name": "supportsInterface",
      "outputs": [
        {
          "internalType": "bool",
          "name": "",
          "type": "bool"
        }
      ],
      "stateMutability": "view",
      "type": "function"
    },
    {
      "inputs": [],
      "name": "toggleLottery",
      "outputs": [],
      "stateMutability": "nonpayable",
      "type": "function"
    },
    {
      "inputs": [
        {
          "internalType": "uint256",
          "name": "id",
          "type": "uint256"
        }
      ],
      "name": "totalSupply",
      "outputs": [
        {
          "internalType": "uint256",
          "name": "",
          "type": "uint256"
        }
      ],
      "stateMutability": "view",
      "type": "function"
    },
    {
      "inputs": [
        {
          "internalType": "uint256",
          "name": "",
          "type": "uint256"
        }
      ],
      "name": "traits",
      "outputs": [
        {
          "internalType": "string",
          "name": "category",
          "type": "string"
        },
        {
          "internalType": "uint256",
          "name": "quantity",
          "type": "uint256"
        },
        {
          "internalType": "bool",
          "name": "set",
          "type": "bool"
        }
      ],
      "stateMutability": "view",
      "type": "function"
    },
    {
      "inputs": [
        {
          "internalType": "address",
          "name": "newOwner",
          "type": "address"
        }
      ],
      "name": "transferOwnership",
      "outputs": [],
      "stateMutability": "nonpayable",
      "type": "function"
    },
    {
      "inputs": [
        {
          "internalType": "uint256",
          "name": "tokenID",
          "type": "uint256"
        }
      ],
      "name": "uri",
      "outputs": [
        {
          "internalType": "string",
          "name": "",
          "type": "string"
        }
      ],
      "stateMutability": "view",
      "type": "function"
    },
    {
      "inputs": [
        {
          "internalType": "uint256",
          "name": "",
          "type": "uint256"
        }
      ],
      "name": "winners",
      "outputs": [
        {
          "internalType": "address",
          "name": "",
          "type": "address"
        }
      ],
      "stateMutability": "view",
      "type": "function"
    }
  ],
  "bytecode": "0x60a06040526032600755600160085561044d600955601580546001600160a01b031916737a1bac17ccc5b313516c5e16fb24f7659aa5ebed1790557f4b09e658ed251bcafeebbc69400383d49f344ace09b9576fe248bb02c003fe9f6016556017805466010003000186a06001600160501b03199091161790553480156200008657600080fd5b5060405162003d3938038062003d39833981016040819052620000a991620001d2565b601554604080518082019091526007815266139194d455505560ca1b60208201526001600160a01b0390911690620000e18162000158565b506001600160a01b0316608052620000f9336200016a565b60155460148054610100600160e81b0319166101006001600160a01b0390931692909202600160a81b600160e81b03191691909117600160a81b6001600160401b0385160217905560136200014f82826200034d565b50505062000419565b60026200016682826200034d565b5050565b600380546001600160a01b038381166001600160a01b0319831681179093556040519116919082907f8be0079c531659141344cd1fd0a4f28419497f9722a3daafe3b4186f6b6457e090600090a35050565b634e487b7160e01b600052604160045260246000fd5b60008060408385031215620001e657600080fd5b82516001600160401b038082168214620001ff57600080fd5b60208581015192945091818111156200021757600080fd5b8501601f810187136200022957600080fd5b8051828111156200023e576200023e620001bc565b604051601f8201601f19908116603f01168101908482118183101715620002695762000269620001bc565b8160405282815289868486010111156200028257600080fd5b600094505b82851015620002a6578385018601518186018701529385019362000287565b60008684830101528096505050505050509250929050565b600181811c90821680620002d357607f821691505b602082108103620002f457634e487b7160e01b600052602260045260246000fd5b50919050565b601f8211156200034857600081815260208120601f850160051c81016020861015620003235750805b601f850160051c820191505b8181101562000344578281556001016200032f565b5050505b505050565b81516001600160401b03811115620003695762000369620001bc565b62000381816200037a8454620002be565b84620002fa565b602080601f831160018114620003b95760008415620003a05750858301515b600019600386901b1c1916600185901b17855562000344565b600085815260208120601f198616915b82811015620003ea57888601518255948401946001909101908401620003c9565b5085821015620004095787850151600019600388901b60f8161c191681555b5050505050600190811b01905550565b6080516138fd6200043c6000396000818161098001526109c201526138fd6000f3fe6080604052600436106102715760003560e01c806391d148541161014f578063d547741f116100c1578063f23f3ba51161007a578063f23f3ba5146107e7578063f242432a146107fd578063f2fde38b1461081d578063f6eaffc81461083d578063f71d96cb1461085d578063f737d21d1461087d57600080fd5b8063d547741f14610731578063e0c8628914610751578063e433a58414610766578063e89e106a14610780578063e97dcb6214610796578063e985e9c51461079e57600080fd5b8063b30906d411610113578063b30906d414610679578063ba0c60c914610699578063bd85b039146106af578063bdf08b11146106dc578063c6cdbe5e146106f1578063ca15c8731461071157600080fd5b806391d14854146105c0578063a217fddf146105e0578063a22cb465146105f5578063a2fb117514610615578063acb586df1461064b57600080fd5b806336568abe116101e8578063528249a6116101ac578063528249a6146104e85780635fe8700514610508578063715018a61461054357806381a7927e146105585780638da5cb5b1461056e5780639010d07c146105a057600080fd5b806336568abe1461042a5780633986c96c1461044a5780634db0412c1461046a5780634e1273f41461048c5780634f558e79146104b957600080fd5b8063236390361161023a5780632363903614610355578063248a9ca31461036b5780632d72225b1461039b5780632e0dcbf7146103ca5780632eb2c2d6146103ea5780632f2ff15d1461040a57600080fd5b8062fdd58e1461027657806301ffc9a7146102a95780630e89341c146102d957806319b7b411146103065780631fe543e314610333575b600080fd5b34801561028257600080fd5b50610296610291366004612b9a565b61089d565b6040519081526020015b60405180910390f35b3480156102b557600080fd5b506102c96102c4366004612bda565b610936565b60405190151581526020016102a0565b3480156102e557600080fd5b506102f96102f4366004612bf7565b610941565b6040516102a09190612c60565b34801561031257600080fd5b50610296610321366004612c73565b600a6020526000908152604090205481565b34801561033f57600080fd5b5061035361034e366004612d64565b610975565b005b34801561036157600080fd5b5061029660125481565b34801561037757600080fd5b50610296610386366004612bf7565b60009081526004602052604090206001015490565b3480156103a757600080fd5b506103bb6103b6366004612bf7565b6109fd565b6040516102a093929190612daa565b3480156103d657600080fd5b506103536103e5366004612e31565b610aab565b3480156103f657600080fd5b50610353610405366004612ea1565b610bed565b34801561041657600080fd5b50610353610425366004612f4a565b610c39565b34801561043657600080fd5b50610353610445366004612f4a565b610c63565b34801561045657600080fd5b50610353610465366004612f76565b610cdd565b34801561047657600080fd5b5061047f610e88565b6040516102a09190612ff7565b34801561049857600080fd5b506104ac6104a7366004613059565b610f61565b6040516102a09190613154565b3480156104c557600080fd5b506102c96104d4366004612bf7565b600090815260066020526040902054151590565b3480156104f457600080fd5b50610353610503366004612bf7565b61108a565b34801561051457600080fd5b506102c9610523366004612e31565b8051602081830181018051600c8252928201919093012091525460ff1681565b34801561054f57600080fd5b506103536111b6565b34801561056457600080fd5b5061029660085481565b34801561057a57600080fd5b506003546001600160a01b03165b6040516001600160a01b0390911681526020016102a0565b3480156105ac57600080fd5b506105886105bb366004613167565b6111ca565b3480156105cc57600080fd5b506102c96105db366004612f4a565b6111e9565b3480156105ec57600080fd5b50610296600081565b34801561060157600080fd5b50610353610610366004613189565b611214565b34801561062157600080fd5b50610588610630366004612bf7565b600d602052600090815260409020546001600160a01b031681565b34801561065757600080fd5b5061066b610666366004612bf7565b61121f565b6040516102a09291906131c5565b34801561068557600080fd5b50610296610694366004612bf7565b611327565b3480156106a557600080fd5b5061029660075481565b3480156106bb57600080fd5b506102966106ca366004612bf7565b60009081526006602052604090205490565b3480156106e857600080fd5b50610353611348565b3480156106fd57600080fd5b506102f961070c366004612bf7565b611364565b34801561071d57600080fd5b5061029661072c366004612bf7565b611410565b34801561073d57600080fd5b5061035361074c366004612f4a565b611427565b34801561075d57600080fd5b5061035361144c565b34801561077257600080fd5b506014546102c99060ff1681565b34801561078c57600080fd5b5061029660185481565b610353611561565b3480156107aa57600080fd5b506102c96107b93660046131e7565b6001600160a01b03918216600090815260016020908152604080832093909416825291909152205460ff1690565b3480156107f357600080fd5b5061029660095481565b34801561080957600080fd5b50610353610818366004613211565b61173a565b34801561082957600080fd5b50610353610838366004612c73565b61177f565b34801561084957600080fd5b50610296610858366004612bf7565b6117f5565b34801561086957600080fd5b50610588610878366004612bf7565b611805565b34801561088957600080fd5b50610353610898366004612bf7565b61182f565b60006001600160a01b03831661090d5760405162461bcd60e51b815260206004820152602a60248201527f455243313135353a2061646472657373207a65726f206973206e6f742061207660448201526930b634b21037bbb732b960b11b60648201526084015b60405180910390fd5b506000818152602081815260408083206001600160a01b03861684529091529020545b92915050565b600061093082611a26565b6060601361094e83611a4b565b60405160200161095f9291906132af565b6040516020818303038152906040529050919050565b336001600160a01b037f000000000000000000000000000000000000000000000000000000000000000016146109ef5760405163073e64fd60e21b81523360048201526001600160a01b037f0000000000000000000000000000000000000000000000000000000000000000166024820152604401610904565b6109f98282611add565b5050565b600b60205260009081526040902080548190610a1890613275565b80601f0160208091040260200160405190810160405280929190818152602001828054610a4490613275565b8015610a915780601f10610a6657610100808354040283529160200191610a91565b820191906000526020600020905b815481529060010190602001808311610a7457829003601f168201915b50505050600183015460029093015491929160ff16905083565b610ab3611af0565b600c81604051610ac39190613346565b9081526040519081900360200190205460ff1615610b2f5760405162461bcd60e51b815260206004820152602360248201527f61646443617465676f72793a2043617465676f727920616c726561647920616460448201526219195960ea1b6064820152608401610904565b6001600c82604051610b419190613346565b908152604051908190036020019020805491151560ff19909216919091179055601180546001810182556000919091527f31ecc21a745e3968a04e9570e4425bc18fa8019c68028196b546d1669c200c6801610b9d82826133a8565b5060128054906000610bae8361347d565b91905055507fdb74f4d32b97da9b3b9b907aa3fd5df938c018e13fe235d9883d0a0836c6bddb81604051610be29190612c60565b60405180910390a150565b6001600160a01b038516331480610c095750610c0985336107b9565b610c255760405162461bcd60e51b815260040161090490613496565b610c328585858585611b4a565b5050505050565b600082815260046020526040902060010154610c5481611d35565b610c5e8383611d3f565b505050565b6001600160a01b0381163314610cd35760405162461bcd60e51b815260206004820152602f60248201527f416363657373436f6e74726f6c3a2063616e206f6e6c792072656e6f756e636560448201526e103937b632b9903337b91039b2b63360891b6064820152608401610904565b6109f98282611d61565b610ce5611af0565b6000848152600b602052604090206002015460ff1615610d475760405162461bcd60e51b815260206004820152601e60248201527f61646454726169743a20547261697420494420616c72656164792073657400006044820152606401610904565b600c8383604051610d599291906134e4565b9081526040519081900360200190205460ff16610db85760405162461bcd60e51b815260206004820152601c60248201527f61646454726169743a2043617465676f7279206e6f742076616c6964000000006044820152606401610904565b604051806060016040528084848080601f016020809104026020016040519081016040528093929190818152602001838380828437600092018290525093855250505060208083018590526001604093840152878252600b90522081518190610e2190826133a8565b50602082015160018201556040918201516002909101805460ff19169115159190911790555184907f80a0b63fef5930c8bd938c280e8a07f2c0c586f3ec2b5bcc7451485194d2fdbd90610e7a908690869086906134f4565b60405180910390a250505050565b60606011805480602002602001604051908101604052809291908181526020016000905b82821015610f58578382906000526020600020018054610ecb90613275565b80601f0160208091040260200160405190810160405280929190818152602001828054610ef790613275565b8015610f445780601f10610f1957610100808354040283529160200191610f44565b820191906000526020600020905b815481529060010190602001808311610f2757829003601f168201915b505050505081526020019060010190610eac565b50505050905090565b60608151835114610fc65760405162461bcd60e51b815260206004820152602960248201527f455243313135353a206163636f756e747320616e6420696473206c656e677468604482015268040dad2e6dac2e8c6d60bb1b6064820152608401610904565b600083516001600160401b03811115610fe157610fe1612c8e565b60405190808252806020026020018201604052801561100a578160200160208202803683370190505b50905060005b84518110156110825761105585828151811061102e5761102e61352d565b60200260200101518583815181106110485761104861352d565b602002602001015161089d565b8282815181106110675761106761352d565b602090810291909101015261107b8161347d565b9050611010565b509392505050565b611092611af0565b6000818152600b602052604090206002015460ff166110f35760405162461bcd60e51b815260206004820152601d60248201527f72656d6f766554726169743a205472616974204944206e6f74207365740000006044820152606401610904565b6000818152600660205260409020541561115b5760405162461bcd60e51b8152602060048201526024808201527f72656d6f766554726169743a20547261697420494420616c7265616479206d696044820152631b9d195960e21b6064820152608401610904565b6000818152600b60205260408120906111748282612ae4565b506000600182018190556002909101805460ff1916905560405182917f12b4ae8e0fa8f696ac4e098f64549294d3a237a15440f9f5cbcdbee8235982f091a250565b6111be611af0565b6111c86000611d83565b565b60008281526005602052604081206111e29083611dd5565b9392505050565b60009182526004602090815260408084206001600160a01b0393909316845291905290205460ff1690565b6109f9338383611de1565b6000818152600b60205260408120600201546060919060ff1661127e5760405162461bcd60e51b815260206004820152601760248201527619d95d151c985a5d0e881d1c985a5d081b9bdd081cd95d604a1b6044820152606401610904565b6000838152600b6020526040902060018101548154829061129e90613275565b80601f01602080910402602001604051908101604052809291908181526020018280546112ca90613275565b80156113175780601f106112ec57610100808354040283529160200191611317565b820191906000526020600020905b8154815290600101906020018083116112fa57829003601f168201915b5050505050915091509150915091565b6010818154811061133757600080fd5b600091825260209091200154905081565b611350611af0565b6014805460ff19811660ff90911615179055565b6011818154811061137457600080fd5b90600052602060002001600091509050805461138f90613275565b80601f01602080910402602001604051908101604052809291908181526020018280546113bb90613275565b80156114085780601f106113dd57610100808354040283529160200191611408565b820191906000526020600020905b8154815290600101906020018083116113eb57829003601f168201915b505050505081565b600081815260056020526040812061093090611ec1565b60008281526004602052604090206001015461144281611d35565b610c5e8383611d61565b611454611af0565b60145460ff1661149e5760405162461bcd60e51b8152602060048201526015602482015274131bdd1d195c9e481a5cc81b9bdd0818db1bdcd959605a1b6044820152606401610904565b6014546016546017546040516305d3b1d360e41b81526004810192909252600160a81b83046001600160401b03166024830152640100000000810461ffff16604483015263ffffffff808216606484015266010000000000009091041660848201526101009091046001600160a01b031690635d3b1d309060a4016020604051808303816000875af1158015611538573d6000803e3d6000fd5b505050506040513d601f19601f8201168201806040525081019061155c9190613543565b601855565b60145460ff16156115a85760405162461bcd60e51b8152602060048201526011602482015270131bdd1d195c9e481a5cc818db1bdcd959607a1b6044820152606401610904565b600854348111156115f05760405162461bcd60e51b81526020600482015260126024820152712737ba1032b737bab3b43a10333ab732399760711b6044820152606401610904565b600754336000908152600a602052604090205461160e90600161355c565b111561165c5760405162461bcd60e51b815260206004820181905260248201527f596f752063616e277420656e746572206d6f7265207468616e20582074696d656044820152606401610904565b60095460105411156116c45760405162461bcd60e51b815260206004820152602b60248201527f4e756d626572206f662072656d61696e696e6720656e7472696573206973206960448201526a1b9cdd59999a58da595b9d60aa1b6064820152608401610904565b600e805460018181019092557fbb7b4a454dc3493923482f07822329ed19e8244eff582cc204f8554c3620c3fd0180546001600160a01b031916339081179091556000908152600a602052604090205461171d9161355c565b5060095460105403611737576014805460ff191660011790555b50565b6001600160a01b038516331480611756575061175685336107b9565b6117725760405162461bcd60e51b815260040161090490613496565b610c328585858585611ecb565b611787611af0565b6001600160a01b0381166117ec5760405162461bcd60e51b815260206004820152602660248201527f4f776e61626c653a206e6577206f776e657220697320746865207a65726f206160448201526564647265737360d01b6064820152608401610904565b61173781611d83565b600f818154811061133757600080fd5b600e818154811061181557600080fd5b6000918252602090912001546001600160a01b0316905081565b6000818152600b602052604090206002015460ff1661188a5760405162461bcd60e51b815260206004820152601760248201527619d95d151c985a5d0e881d1c985a5d081b9bdd081cd95d604a1b6044820152606401610904565b60145460ff166118d45760405162461bcd60e51b8152602060048201526015602482015274131bdd1d195c9e481a5cc81b9bdd0818db1bdcd959605a1b6044820152606401610904565b6000600e80549050600f6000815481106118f0576118f061352d565b9060005260206000200154611905919061356f565b9050611953600e828154811061191d5761191d61352d565b9060005260206000200160009054906101000a90046001600160a01b031683600160405180602001604052806000815250612003565b6000828152600b6020526040812060010180549161197083613591565b9091555050600e8054611985906001906135a8565b815481106119955761199561352d565b600091825260209091200154600e80546001600160a01b0390921691839081106119c1576119c161352d565b9060005260206000200160006101000a8154816001600160a01b0302191690836001600160a01b03160217905550600e805480611a0057611a006135bb565b600082815260209020810160001990810180546001600160a01b03191690550190555050565b60006001600160e01b03198216635a05180f60e01b1480610930575061093082612126565b60606000611a588361214b565b60010190506000816001600160401b03811115611a7757611a77612c8e565b6040519080825280601f01601f191660200182016040528015611aa1576020820181803683370190505b5090508181016020015b600019016f181899199a1a9b1b9c1cb0b131b232b360811b600a86061a8153600a8504945084611aab57509392505050565b8051610c5e90600f906020840190612b1e565b6003546001600160a01b031633146111c85760405162461bcd60e51b815260206004820181905260248201527f4f776e61626c653a2063616c6c6572206973206e6f7420746865206f776e65726044820152606401610904565b8151835114611bac5760405162461bcd60e51b815260206004820152602860248201527f455243313135353a2069647320616e6420616d6f756e7473206c656e677468206044820152670dad2e6dac2e8c6d60c31b6064820152608401610904565b6001600160a01b038416611bd25760405162461bcd60e51b8152600401610904906135d1565b33611be1818787878787612223565b60005b8451811015611cc7576000858281518110611c0157611c0161352d565b602002602001015190506000858381518110611c1f57611c1f61352d565b602090810291909101810151600084815280835260408082206001600160a01b038e168352909352919091205490915081811015611c6f5760405162461bcd60e51b815260040161090490613616565b6000838152602081815260408083206001600160a01b038e8116855292528083208585039055908b16825281208054849290611cac90849061355c565b9250508190555050505080611cc09061347d565b9050611be4565b50846001600160a01b0316866001600160a01b0316826001600160a01b03167f4a39dc06d4c0dbc64b70af90fd698a233a518aa5d07e595d983b8c0526c8f7fb8787604051611d17929190613660565b60405180910390a4611d2d818787878787612231565b505050505050565b611737813361238c565b611d4982826123e5565b6000828152600560205260409020610c5e908261246b565b611d6b8282612480565b6000828152600560205260409020610c5e90826124e7565b600380546001600160a01b038381166001600160a01b0319831681179093556040519116919082907f8be0079c531659141344cd1fd0a4f28419497f9722a3daafe3b4186f6b6457e090600090a35050565b60006111e283836124fc565b816001600160a01b0316836001600160a01b031603611e545760405162461bcd60e51b815260206004820152602960248201527f455243313135353a2073657474696e6720617070726f76616c20737461747573604482015268103337b91039b2b63360b91b6064820152608401610904565b6001600160a01b03838116600081815260016020908152604080832094871680845294825291829020805460ff191686151590811790915591519182527f17307eab39ab6107e8899845ad3d59bd9653f200f220920489ca2b5937696c31910160405180910390a3505050565b6000610930825490565b6001600160a01b038416611ef15760405162461bcd60e51b8152600401610904906135d1565b336000611efd85612526565b90506000611f0a85612526565b9050611f1a838989858589612223565b6000868152602081815260408083206001600160a01b038c16845290915290205485811015611f5b5760405162461bcd60e51b815260040161090490613616565b6000878152602081815260408083206001600160a01b038d8116855292528083208985039055908a16825281208054889290611f9890849061355c565b909155505060408051888152602081018890526001600160a01b03808b16928c821692918816917fc3d58168c5ae7397731d063d5bbf3d657854427343f4c083240f7aacaa2d0f62910160405180910390a4611ff8848a8a8a8a8a612571565b505050505050505050565b6001600160a01b0384166120635760405162461bcd60e51b815260206004820152602160248201527f455243313135353a206d696e7420746f20746865207a65726f206164647265736044820152607360f81b6064820152608401610904565b33600061206f85612526565b9050600061207c85612526565b905061208d83600089858589612223565b6000868152602081815260408083206001600160a01b038b168452909152812080548792906120bd90849061355c565b909155505060408051878152602081018790526001600160a01b03808a1692600092918716917fc3d58168c5ae7397731d063d5bbf3d657854427343f4c083240f7aacaa2d0f62910160405180910390a461211d83600089898989612571565b50505050505050565b60006001600160e01b03198216637965db0b60e01b148061093057506109308261262c565b60008072184f03e93ff9f4daa797ed6e38ed64bf6a1f0160401b831061218a5772184f03e93ff9f4daa797ed6e38ed64bf6a1f0160401b830492506040015b6d04ee2d6d415b85acef810000000083106121b6576d04ee2d6d415b85acef8100000000830492506020015b662386f26fc1000083106121d457662386f26fc10000830492506010015b6305f5e10083106121ec576305f5e100830492506008015b612710831061220057612710830492506004015b60648310612212576064830492506002015b600a83106109305760010192915050565b611d2d86868686868661267c565b6001600160a01b0384163b15611d2d5760405163bc197c8160e01b81526001600160a01b0385169063bc197c8190612275908990899088908890889060040161368e565b6020604051808303816000875af19250505080156122b0575060408051601f3d908101601f191682019092526122ad918101906136ec565b60015b61235c576122bc613709565b806308c379a0036122f557506122d0613725565b806122db57506122f7565b8060405162461bcd60e51b81526004016109049190612c60565b505b60405162461bcd60e51b815260206004820152603460248201527f455243313135353a207472616e7366657220746f206e6f6e2d455243313135356044820152732932b1b2b4bb32b91034b6b83632b6b2b73a32b960611b6064820152608401610904565b6001600160e01b0319811663bc197c8160e01b1461211d5760405162461bcd60e51b8152600401610904906137ae565b61239682826111e9565b6109f9576123a3816127f5565b6123ae836020612807565b6040516020016123bf9291906137f6565b60408051601f198184030181529082905262461bcd60e51b825261090491600401612c60565b6123ef82826111e9565b6109f95760008281526004602090815260408083206001600160a01b03851684529091529020805460ff191660011790556124273390565b6001600160a01b0316816001600160a01b0316837f2f8788117e7eff1d82e926ec794901d17c78024a50270940304540a733656f0d60405160405180910390a45050565b60006111e2836001600160a01b0384166129a2565b61248a82826111e9565b156109f95760008281526004602090815260408083206001600160a01b0385168085529252808320805460ff1916905551339285917ff6391f5c32d9c69d2a47ea670b442974b53935d1edc7fd64eb21e047a839171b9190a45050565b60006111e2836001600160a01b0384166129f1565b60008260000182815481106125135761251361352d565b9060005260206000200154905092915050565b604080516001808252818301909252606091600091906020808301908036833701905050905082816000815181106125605761256061352d565b602090810291909101015292915050565b6001600160a01b0384163b15611d2d5760405163f23a6e6160e01b81526001600160a01b0385169063f23a6e61906125b5908990899088908890889060040161386b565b6020604051808303816000875af19250505080156125f0575060408051601f3d908101601f191682019092526125ed918101906136ec565b60015b6125fc576122bc613709565b6001600160e01b0319811663f23a6e6160e01b1461211d5760405162461bcd60e51b8152600401610904906137ae565b60006001600160e01b03198216636cdb3d1360e11b148061265d57506001600160e01b031982166303a24d0760e21b145b8061093057506301ffc9a760e01b6001600160e01b0319831614610930565b6001600160a01b0385166127035760005b8351811015612701578281815181106126a8576126a861352d565b6020026020010151600660008684815181106126c6576126c661352d565b6020026020010151815260200190815260200160002060008282546126eb919061355c565b909155506126fa90508161347d565b905061268d565b505b6001600160a01b038416611d2d5760005b835181101561211d5760008482815181106127315761273161352d565b60200260200101519050600084838151811061274f5761274f61352d565b60200260200101519050600060066000848152602001908152602001600020549050818110156127d25760405162461bcd60e51b815260206004820152602860248201527f455243313135353a206275726e20616d6f756e74206578636565647320746f74604482015267616c537570706c7960c01b6064820152608401610904565b600092835260066020526040909220910390556127ee8161347d565b9050612714565b60606109306001600160a01b03831660145b606060006128168360026138b0565b61282190600261355c565b6001600160401b0381111561283857612838612c8e565b6040519080825280601f01601f191660200182016040528015612862576020820181803683370190505b509050600360fc1b8160008151811061287d5761287d61352d565b60200101906001600160f81b031916908160001a905350600f60fb1b816001815181106128ac576128ac61352d565b60200101906001600160f81b031916908160001a90535060006128d08460026138b0565b6128db90600161355c565b90505b6001811115612953576f181899199a1a9b1b9c1cb0b131b232b360811b85600f166010811061290f5761290f61352d565b1a60f81b8282815181106129255761292561352d565b60200101906001600160f81b031916908160001a90535060049490941c9361294c81613591565b90506128de565b5083156111e25760405162461bcd60e51b815260206004820181905260248201527f537472696e67733a20686578206c656e67746820696e73756666696369656e746044820152606401610904565b60008181526001830160205260408120546129e957508154600181810184556000848152602080822090930184905584548482528286019093526040902091909155610930565b506000610930565b60008181526001830160205260408120548015612ada576000612a156001836135a8565b8554909150600090612a29906001906135a8565b9050818114612a8e576000866000018281548110612a4957612a4961352d565b9060005260206000200154905080876000018481548110612a6c57612a6c61352d565b6000918252602080832090910192909255918252600188019052604090208390555b8554869080612a9f57612a9f6135bb565b600190038181906000526020600020016000905590558560010160008681526020019081526020016000206000905560019350505050610930565b6000915050610930565b508054612af090613275565b6000825580601f10612b00575050565b601f0160209004906000526020600020908101906117379190612b69565b828054828255906000526020600020908101928215612b59579160200282015b82811115612b59578251825591602001919060010190612b3e565b50612b65929150612b69565b5090565b5b80821115612b655760008155600101612b6a565b80356001600160a01b0381168114612b9557600080fd5b919050565b60008060408385031215612bad57600080fd5b612bb683612b7e565b946020939093013593505050565b6001600160e01b03198116811461173757600080fd5b600060208284031215612bec57600080fd5b81356111e281612bc4565b600060208284031215612c0957600080fd5b5035919050565b60005b83811015612c2b578181015183820152602001612c13565b50506000910152565b60008151808452612c4c816020860160208601612c10565b601f01601f19169290920160200192915050565b6020815260006111e26020830184612c34565b600060208284031215612c8557600080fd5b6111e282612b7e565b634e487b7160e01b600052604160045260246000fd5b601f8201601f191681016001600160401b0381118282101715612cc957612cc9612c8e565b6040525050565b60006001600160401b03821115612ce957612ce9612c8e565b5060051b60200190565b600082601f830112612d0457600080fd5b81356020612d1182612cd0565b604051612d1e8282612ca4565b83815260059390931b8501820192828101915086841115612d3e57600080fd5b8286015b84811015612d595780358352918301918301612d42565b509695505050505050565b60008060408385031215612d7757600080fd5b8235915060208301356001600160401b03811115612d9457600080fd5b612da085828601612cf3565b9150509250929050565b606081526000612dbd6060830186612c34565b602083019490945250901515604090910152919050565b60006001600160401b03831115612ded57612ded612c8e565b604051612e04601f8501601f191660200182612ca4565b809150838152848484011115612e1957600080fd5b83836020830137600060208583010152509392505050565b600060208284031215612e4357600080fd5b81356001600160401b03811115612e5957600080fd5b8201601f81018413612e6a57600080fd5b612e7984823560208401612dd4565b949350505050565b600082601f830112612e9257600080fd5b6111e283833560208501612dd4565b600080600080600060a08688031215612eb957600080fd5b612ec286612b7e565b9450612ed060208701612b7e565b935060408601356001600160401b0380821115612eec57600080fd5b612ef889838a01612cf3565b94506060880135915080821115612f0e57600080fd5b612f1a89838a01612cf3565b93506080880135915080821115612f3057600080fd5b50612f3d88828901612e81565b9150509295509295909350565b60008060408385031215612f5d57600080fd5b82359150612f6d60208401612b7e565b90509250929050565b60008060008060608587031215612f8c57600080fd5b8435935060208501356001600160401b0380821115612faa57600080fd5b818701915087601f830112612fbe57600080fd5b813581811115612fcd57600080fd5b886020828501011115612fdf57600080fd5b95986020929092019750949560400135945092505050565b6000602080830181845280855180835260408601915060408160051b870101925083870160005b8281101561304c57603f1988860301845261303a858351612c34565b9450928501929085019060010161301e565b5092979650505050505050565b6000806040838503121561306c57600080fd5b82356001600160401b038082111561308357600080fd5b818501915085601f83011261309757600080fd5b813560206130a482612cd0565b6040516130b18282612ca4565b83815260059390931b85018201928281019150898411156130d157600080fd5b948201945b838610156130f6576130e786612b7e565b825294820194908201906130d6565b9650508601359250508082111561310c57600080fd5b50612da085828601612cf3565b600081518084526020808501945080840160005b838110156131495781518752958201959082019060010161312d565b509495945050505050565b6020815260006111e26020830184613119565b6000806040838503121561317a57600080fd5b50508035926020909101359150565b6000806040838503121561319c57600080fd5b6131a583612b7e565b9150602083013580151581146131ba57600080fd5b809150509250929050565b6040815260006131d86040830185612c34565b90508260208301529392505050565b600080604083850312156131fa57600080fd5b61320383612b7e565b9150612f6d60208401612b7e565b600080600080600060a0868803121561322957600080fd5b61323286612b7e565b945061324060208701612b7e565b9350604086013592506060860135915060808601356001600160401b0381111561326957600080fd5b612f3d88828901612e81565b600181811c9082168061328957607f821691505b6020821081036132a957634e487b7160e01b600052602260045260246000fd5b50919050565b60008084546132bd81613275565b600182811680156132d557600181146132ea57613319565b60ff1984168752821515830287019450613319565b8860005260208060002060005b858110156133105781548a8201529084019082016132f7565b50505082870194505b50505050835161332d818360208801612c10565b64173539b7b760d91b9101908152600501949350505050565b60008251613358818460208701612c10565b9190910192915050565b601f821115610c5e57600081815260208120601f850160051c810160208610156133895750805b601f850160051c820191505b81811015611d2d57828155600101613395565b81516001600160401b038111156133c1576133c1612c8e565b6133d5816133cf8454613275565b84613362565b602080601f83116001811461340a57600084156133f25750858301515b600019600386901b1c1916600185901b178555611d2d565b600085815260208120601f198616915b828110156134395788860151825594840194600190910190840161341a565b50858210156134575787850151600019600388901b60f8161c191681555b5050505050600190811b01905550565b634e487b7160e01b600052601160045260246000fd5b60006001820161348f5761348f613467565b5060010190565b6020808252602e908201527f455243313135353a2063616c6c6572206973206e6f7420746f6b656e206f776e60408201526d195c881bdc88185c1c1c9bdd995960921b606082015260800190565b8183823760009101908152919050565b604081528260408201528284606083013760006060848301015260006060601f19601f8601168301019050826020830152949350505050565b634e487b7160e01b600052603260045260246000fd5b60006020828403121561355557600080fd5b5051919050565b8082018082111561093057610930613467565b60008261358c57634e487b7160e01b600052601260045260246000fd5b500690565b6000816135a0576135a0613467565b506000190190565b8181038181111561093057610930613467565b634e487b7160e01b600052603160045260246000fd5b60208082526025908201527f455243313135353a207472616e7366657220746f20746865207a65726f206164604082015264647265737360d81b606082015260800190565b6020808252602a908201527f455243313135353a20696e73756666696369656e742062616c616e636520666f60408201526939103a3930b739b332b960b11b606082015260800190565b6040815260006136736040830185613119565b82810360208401526136858185613119565b95945050505050565b6001600160a01b0386811682528516602082015260a0604082018190526000906136ba90830186613119565b82810360608401526136cc8186613119565b905082810360808401526136e08185612c34565b98975050505050505050565b6000602082840312156136fe57600080fd5b81516111e281612bc4565b600060033d11156137225760046000803e5060005160e01c5b90565b600060443d10156137335790565b6040516003193d81016004833e81513d6001600160401b03816024840111818411171561376257505050505090565b828501915081518181111561377a5750505050505090565b843d87010160208285010111156137945750505050505090565b6137a360208286010187612ca4565b509095945050505050565b60208082526028908201527f455243313135353a204552433131353552656365697665722072656a656374656040820152676420746f6b656e7360c01b606082015260800190565b7f416363657373436f6e74726f6c3a206163636f756e742000000000000000000081526000835161382e816017850160208801612c10565b7001034b99036b4b9b9b4b733903937b6329607d1b601791840191820152835161385f816028840160208801612c10565b01602801949350505050565b6001600160a01b03868116825285166020820152604081018490526060810183905260a0608082018190526000906138a590830184612c34565b979650505050505050565b80820281158282048414176109305761093061346756fea264697066735822122006081aa0f6a9700faea6a07b15a33472cabf300a0bc611e7faf306a2723e3f6064736f6c63430008110033",
  "linkReferences": {},
  "deployedLinkReferences": {}
}